:020000040800F2
:10000000005000208D5C0008D55C0008D55C00081D
:10001000D55C0008D55C0008D55C00080000000035
:10002000000000000000000000000000D55C000897
:10003000D55C000800000000D55C0008AB52000849
:10004000D55C0008D55C0008D55C0008D55C0008CC
:10005000D55C0008D55C0008155300081B53000848
:1000600021530008275300082D530008D55C0008D1
:10007000D55C0008D55C0008D55C0008D55C00089C
:10008000D55C0008D55C0008D55C0008D55C00088C
:10009000D55C0008D55C0008D55C00083353000827
:1000A000D55C0008A15D0008D55C0008D55C00089F
:1000B000B15D0008C15D0008D15D0008C1600008A5
:1000C000CD600008D9600008E5600008D55C000834
:1000D000D55C00081D640008356400084D64000804
:1000E00049530008BD590008D55C00080000000015
:1000F0000000000000000000000000000000000000
:0C01000000000000000000005FF808F1A3
:10010C0010B5054C237833B9044B13B10448AFF345
:10011C0000800123237010BDA0020020000000000D
:10012C00247C00080C4B43B10C4810B50C49AFF3C0
:10013C0000800C48036823B910BD0A48036833B922
:10014C007047094B002BF7D0BDE810401847064B01
:10015C00002BF5D0184700BF00000000247C0008DD
:10016C00A40200209C02002000000000034613F8AB
:10017C00012B002AFBD1181A0138704781F000417D
:10018C0002E000BF83F0004330B54FEA41044FEA70
:10019C00430594EA050F08BF90EA020F1FBF54EA0B
:1001AC00000C55EA020C7FEA645C7FEA655C00F0A7
:1001BC00E2804FEA5454D4EB5555B8BF6D420CDD78
:1001CC002C4480EA020281EA030382EA000083EAFB
:1001DC00010180EA020281EA0303362D88BF30BD9B
:1001EC0011F0004F4FEA01314FF4801C4CEA1131F1
:1001FC0002D0404261EB410113F0004F4FEA033350
:10020C004CEA133302D0524263EB430394EA050FDA
:10021C0000F0A780A4F10104D5F1200E0DDB02FA49
:10022C000EFC22FA05F2801841F1000103FA0EF2DD
:10023C00801843FA05F359410EE0A5F120050EF1A3
:10024C00200E012A03FA0EFC28BF4CF0020C43FAD4
:10025C0005F3C01851EBE37101F0004507D54FF0E1
:10026C00000EDCF1000C7EEB00006EEB0101B1F531
:10027C00801F1BD3B1F5001F0CD349085FEA300077
:10028C004FEA3C0C04F101044FEA445212F5800F82
:10029C0080F09A80BCF1004F08BF5FEA500C50F11F
:1002AC00000041EB045141EA050130BD5FEA4C0C02
:1002BC00404141EB010111F4801FA4F10104E9D18B
:1002CC0091F0000F04BF01460020B1FA81F308BF82
:1002DC002033A3F10B03B3F120020CDA0C3208DD4E
:1002EC0002F1140CC2F10C0201FA0CF021FA02F129
:1002FC000CE002F11402D8BFC2F1200C01FA02F199
:10030C0020FA0CFCDCBF41EA0C019040E41AA2BFBD
:10031C0001EB0451294330BD6FEA04041F3C1CDA85
:10032C000C340EDC04F11404C4F1200220FA04F0A5
:10033C0001FA02F340EA030021FA04F345EA03014F
:10034C0030BDC4F10C04C4F1200220FA02F001FA11
:10035C0004F340EA0300294630BD21FA04F0294693
:10036C0030BD94F0000F83F4801306BF81F480112C
:10037C000134013D4EE77FEA645C18BF7FEA655C9F
:10038C0029D094EA050F08BF90EA020F05D054EA71
:10039C00000C04BF1946104630BD91EA030F1EBF76
:1003AC000021002030BD5FEA545C05D1400049417A
:1003BC0028BF41F0004130BD14F580043CBF01F56D
:1003CC00801130BD01F0004545F0FE4141F4700153
:1003DC004FF0000030BD7FEA645C1ABF194610462E
:1003EC007FEA655C1CBF0B46024650EA013406BF2F
:1003FC0052EA033591EA030F41F4002130BD00BFEE
:10040C0090F0000F04BF0021704730B54FF48064AA
:10041C0004F132044FF000054FF0000150E700BF2B
:10042C0090F0000F04BF0021704730B54FF480648A
:10043C0004F1320410F0004548BF40424FF0000177
:10044C003EE700BF42004FEAE2014FEA31014FEABA
:10045C0002701FBF12F07F4393F07F4F81F0605109
:10046C00704792F0000F14BF93F07F4F704730B578
:10047C004FF4607401F0004521F0004120E700BF0B
:10048C0050EA010208BF704730B54FF000050AE092
:10049C0050EA010208BF704730B511F0004502D593
:1004AC00404261EB41014FF4806404F132045FEA95
:1004BC00915C3FF4DCAE4FF003025FEADC0C18BF3A
:1004CC0003325FEADC0C18BF033202EBDC02C2F130
:1004DC00200300FA03FC20FA02F001FA03FE40EAC2
:1004EC000E0021FA02F11444C1E600BF70B54FF0C2
:1004FC00FF0C4CF4E06C1CEA11541DBF1CEA1355A4
:10050C0094EA0C0F95EA0C0F00F0DEF82C4481EA0B
:10051C00030621EA4C5123EA4C5350EA013518BF2B
:10052C0052EA033541F4801143F4801338D0A0FB18
:10053C0002CE4FF00005E1FB02E506F00042E0FBC5
:10054C0003E54FF00006E1FB03569CF0000F18BFCB
:10055C004EF0010EA4F1FF04B6F5007F64F5407473
:10056C0004D25FEA4E0E6D4146EB060642EAC62106
:10057C0041EA55514FEAC52040EA5E504FEACE2E73
:10058C00B4F1FD0C88BFBCF5E06F1ED8BEF1004F76
:10059C0008BF5FEA500E50F1000041EB045170BDF2
:1005AC0006F0004646EA010140EA020081EA030136
:1005BC00B4EB5C04C2BFD4EB0C0541EA045170BD32
:1005CC0041F480114FF0000E013C00F3AB8014F1AC
:1005DC00360FDEBF002001F0004170BDC4F10004F5
:1005EC00203C35DA0C341BDC04F11404C4F1200576
:1005FC0000FA05F320FA04F001FA05F240EA0200D1
:10060C0001F0004221F0004110EBD37021FA04F606
:10061C0042EB06015EEA430E08BF20EAD37070BDC0
:10062C00C4F10C04C4F1200500FA04F320FA05F01F
:10063C0001FA04F240EA020001F0004110EBD37021
:10064C0041F100015EEA430E08BF20EAD37070BD91
:10065C00C4F1200500FA05F24EEA020E20FA04F36A
:10066C0001FA05F243EA020321FA04F001F0004119
:10067C0021FA04F220EA020000EBD3705EEA430E8A
:10068C0008BF20EAD37070BD94F0000F0FD101F0B9
:10069C000046400041EB010111F4801F08BF013CF2
:1006AC00F7D041EA060195F0000F18BF704703F030
:1006BC000046520043EB030313F4801F08BF013DB7
:1006CC00F7D043EA0603704794EA0C0F0CEA135573
:1006DC0018BF95EA0C0F0CD050EA410618BF52EA2D
:1006EC004306D1D181EA030101F000414FF0000033
:1006FC0070BD50EA410606BF1046194652EA430641
:10070C0019D094EA0C0F02D150EA013613D195EAB4
:10071C000C0F05D152EA03361CBF104619460AD1FC
:10072C0081EA030101F0004141F0FE4141F4700106
:10073C004FF0000070BD41F0FE4141F4780170BDF6
:10074C0070B54FF0FF0C4CF4E06C1CEA11541DBF5B
:10075C001CEA135594EA0C0F95EA0C0F00F0A7F85D
:10076C00A4EB050481EA030E52EA03354FEA01318A
:10077C0000F088804FEA03334FF0805545EA13139D
:10078C0043EA12634FEA022245EA111545EA106565
:10079C004FEA00260EF000419D4208BF964244F1FC
:1007AC00FD0404F5407402D25B084FEA3202B61A1B
:1007BC0065EB03055B084FEA32024FF480104FF4EF
:1007CC00002CB6EB020E75EB030E22BFB61A754663
:1007DC0040EA0C005B084FEA3202B6EB020E75EBF6
:1007EC00030E22BFB61A754640EA5C005B084FEA5E
:1007FC003202B6EB020E75EB030E22BFB61A75462B
:10080C0040EA9C005B084FEA3202B6EB020E75EB35
:10081C00030E22BFB61A754640EADC0055EA060EF6
:10082C0018D04FEA051545EA16754FEA06164FEA39
:10083C00C30343EA52734FEAC2025FEA1C1CC0D1E5
:10084C0011F4801F0BD141EA00014FF000004FF072
:10085C00004CB6E711F4801F04BF01430020B4F133
:10086C00FD0C88BFBCF5E06F3FF6AFAEB5EB030CEB
:10087C0004BFB6EB020C5FEA500C50F1000041EBE8
:10088C00045170BD0EF0004E4EEA113114EB5C04B5
:10089C00C2BFD4EB0C0541EA045170BD41F4801188
:1008AC004FF0000E013C90E645EA060E8DE60CEA90
:1008BC00135594EA0C0F08BF95EA0C0F3FF43BAFAD
:1008CC0094EA0C0F0AD150EA01347FF434AF95EA64
:1008DC000C0F7FF425AF104619462CE795EA0C0F48
:1008EC0006D152EA03353FF4FDAE1046194622E715
:1008FC0050EA410618BF52EA43067FF4C5AE50EAEF
:10090C0041047FF40DAF52EA43057FF4EBAE12E7DE
:10091C004FF0FF3C06E000BF4FF0010C02E000BFBF
:10092C004FF0010C4DF804CD4FEA410C7FEA6C5CA2
:10093C004FEA430C18BF7FEA6C5C1BD001B050EA45
:10094C00410C0CBF52EA430C91EA030F02BF90EA30
:10095C00020F0020704710F1000F91EA030F58BFEF
:10096C00994208BF90422CBFD8176FEAE37040F051
:10097C00010070474FEA410C7FEA6C5C02D150EAEF
:10098C00013C07D14FEA430C7FEA6C5CD6D152EAAA
:10099C00033CD3D05DF8040B704700BF844610466F
:1009AC0062468C461946634600E000BF01B5FFF76E
:1009BC00B7FF002848BF10F1000F01BD4DF808ED3E
:1009CC00FFF7F4FF0CBF012000205DF808FB00BF0F
:1009DC004DF808EDFFF7EAFF34BF012000205DF869
:1009EC0008FB00BF4DF808EDFFF7E0FF94BF0120B6
:1009FC0000205DF808FB00BF4DF808EDFFF7CEFFB7
:100A0C0094BF012000205DF808FB00BF4DF808EDF5
:100A1C00FFF7C4FF34BF012000205DF808FB00BFC6
:100A2C004FEA410C7FEA6C5C02D150EA013C0AD1DE
:100A3C004FEA430C7FEA6C5C02D152EA033C02D1D0
:100A4C004FF0000070474FF0010070474FEA410231
:100A5C0012F5001215D211D56FF47873B3EB625204
:100A6C0012D94FEAC12343F0004343EA505311F02B
:100A7C00004F23FA02F018BF404270474FF00000BD
:100A8C00704750EA013005D111F0004008BF6FF0FB
:100A9C00004070474FF00000704700BF4A0011D271
:100AAC0012F5001211D20DD56FF47873B3EB6252BC
:100ABC000ED44FEAC12343F0004343EA505323FAC8
:100ACC0002F070474FF00000704750EA013002D13D
:100ADC004FF0FF3070474FF0000070474FEA410273
:100AEC00B2F1E04324BFB3F5001CDCF1FE5C0DD980
:100AFC0001F0004C4FEAC0024CEA5070B2F1004FCA
:100B0C0040EB830008BF20F00100704711F0804FCC
:100B1C0021D113F13872BCBF01F00040704741F491
:100B2C0080114FEA5252C2F11802C2F1200C10FA95
:100B3C000CF320FA02F018BF40F001004FEAC12379
:100B4C004FEAD32303FA0CFC40EA0C0023FA02F31D
:100B5C004FEA4303CCE77FEA625307D150EA0133F3
:100B6C001EBF4FF0FE4040F44000704701F00040C3
:100B7C0040F0FE4040F40000704700BF0368C9B26B
:100B8C001B68184710B5054CA5212046FFF7F6FF4A
:100B9C0052212046FFF7F2FF10BD00BF9407002042
:100BAC0010B5054CA5212046FFF7E8FF552120463E
:100BBC00FFF7E4FF10BD00BF9407002010B50446FA
:100BCC0006224FF4E131074801F072FE2046FFF790
:100BDC00E7FF40F6B83005F0FBFC2046BDE81040BE
:100BEC00FFF7D0BF940700200022024B1A755A75EC
:100BFC00704700BFBC0200202DE9F34104464FF0C2
:100C0C00000801272F4E304601F097FD98B1304671
:100C1C00257D01F0A6FD25442873237D13B9227B85
:100C2C00AA2A4BD10133DBB2082B2375EBD184F804
:100C3C0014806775E7E7637D012B3FD1237BAA2BDB
:100C4C003AD1E37C552B37D1637BA07B40EA032060
:100C5C0000B2FFF7E5FB00221B4BFFF771FDFFF71E
:100C6C003DFFE37B2060207C40EA032000B2FFF7CD
:100C7C00D7FB0022154BFFF763FDFFF72FFF637CBB
:100C8C006060A07C40EA032000B2FFF7C9FB0022A1
:100C9C000E4BFFF755FDFFF721FF0D49A0600D48E6
:100CAC0001F08AFE2068FFF7CDFB02230246009379
:100CBC0008480B4601F09BFF0023637502B0BDE8AA
:100CCC00F08100BF94070020000059C0000059407B
:100CDC00507C00081005002030B50A24C460446123
:100CEC001224C46144621C24C46244632424002280
:100CFC0040213625C4632E2402604260826001616B
:100D0C008261016282620163826302644464816471
:100D1C00C464026545658265C46501664466826685
:100D2C00C56630BD10B50B4C0B490C4801F054FE98
:100D3C0001233C220221204600F00CFF204600F04B
:100D4C00DFFF40F6B83005F043FC2046BDE810400C
:100D5C0000F096BED4020020617C000894070020AD
:100D6C002DE9FF47DDE90C67054690464FF0020A76
:100D7C009946DDE90E34CDE90234254C012120469B
:100D8C0001F078FC0121204601F079FC204600F0AE
:100D9C0077FEEA68B5F90810053212B2204601F068
:100DAC0066FC1C49204601F007FE4B464246CDF836
:100DBC0000A0204601F016FF6A69B5F91010053243
:100DCC0012B2204601F053FC1349204601F0F4FD09
:100DDC003B463246CDF800A0204601F003FFEA69FD
:100DEC00B5F91810053212B2204601F040FC0B493F
:100DFC00204601F0E1FDDDE90223CDF800A02046FC
:100E0C0001F0F0FE204604B0BDE8F04700F078BFDA
:100E1C00D4020020587C00085B7C00085E7C000833
:100E2C0008B50421034800F013FEBDE80840024851
:100E3C00FFF752BFD4020020FC02002008B51D2091
:100E4C0005F0A0FB084A01281168084B0BBF0131C3
:100E5C0001F1FF31116011600BBF1A681A68013281
:100E6C0002F1FF321A6008BD980300209C03002099
:100E7C0008B51B2005F086FB084A01281168084BB1
:100E8C000BBF013101F1FF31116011600BBF1A680A
:100E9C001A68013202F1FF321A6008BDB00300205B
:100EAC00B403002010B502211C2005F0F5FA002136
:100EBC001A2005F0F1FA104C02211D2005F0ECFA75
:100ECC001B20002105F0E8FA94F91C3003220133B1
:100EDC0014BF1C204FF0FF30084901F05DFF94F95E
:100EEC001A300322BDE810400133054914BF1A2003
:100EFC004FF0FF3001F050BFA8850008490E0008E4
:100F0C007D0E000808B50848FFF758FE0748FFF7A4
:100F1C0009FFFFF7C7FFBDE8084006224FF4E13197
:100F2C00034801F0C5BC00BFBC020020FC0200203D
:100F3C00100500202DE9F04F624E85B03068FFF7A8
:100F4C006FFA0022604BFFF7FBFB5AA3D3E9002397
:100F5C00FFF7CCFA00225D4BFFF7C8FA4FF00009FF
:100F6C0004460D465A4BDFF8A081C3E90045D8F87A
:100F7C000000C6F80090FFF753FA0022524BFFF71F
:100F8C00DFFB4CA3D3E90023FFF7B0FA00224F4B51
:100F9C00FFF7ACFA06460F464E4BC8F80090C3E973
:100FAC0000674D4B1868FFF74DFA00224B4BFFF7CB
:100FBC00C7FB40A3D3E90023FFF798FA3FA3D3E97B
:100FCC000023CDE90201FFF7DFF88046894605F0E2
:100FDC0095FC82468B464046494605F047FC5246F6
:100FEC00CDE900015B4630463946FFF77FFADDE973
:100FFC0000238046894620462946FFF777FA0246A9
:10100C000B4640464946FFF7BDF8354BD3E9002364
:10101C00FFF7BAF880468946314B3046C3E9008960
:10102C00DDE900233946FFF761FA524606460F46C2
:10103C005B4620462946FFF759FA2A4C02460B46D6
:10104C0030463946FFF7A0F8D4E90023FFF79CF8A7
:10105C00254BC4E90001C3E90089244B244CC3E9A6
:10106C00000114A3D3E90023DDE90201FFF768FBBB
:10107C0000221A4BFFF73AFA1E4BC3E900011E4936
:10108C00204601F099FC1D4B0A221968204601F0FC
:10109C00CCFC1B49204601F08FFC1A4B0A22196824
:1010AC00204601F0C2FC204605B0BDE8F04F01F02F
:1010BC008BBC00BF182D4454FB210940182D4454FF
:1010CC00FB21E93F9803002000408F400000434083
:1010DC007003002078030020BC02002000806640D2
:1010EC0090030020A803002088030020A003002008
:1010FC001005002080030020727C00089C03002057
:10110C00807C0008B4030020B00300201FB51248F7
:10111C00FFF772FD05F05AFA104C2368C01A042828
:10112C0017D9FFF707FF0E4B0E48D3E90023CDE983
:10113C0002230D4BD3E90023CDE900230B4BD3E95C
:10114C000023FFF70DFE0A4801F03EFC05F03EFAC5
:10115C00206004B010BD00BFBC0200206C03002056
:10116C0080030020FC020020A00300208803002044
:10117C0010050020024B1878024B1B78C01A7047E0
:10118C005F0400205D040020074A084913780978A1
:10119C008B42BFBF06490968C85C0133B4BF1370EA
:1011AC004FF0FF30704700BF5D0400205F0400204B
:1011BC0070040020054B064A1B7812789342BDBF81
:1011CC00044A1268D05C4FF0FF3070475D04002079
:1011DC005F04002070040020044B1B682BB100221C
:1011EC0003490A7003490A701847704768040020C5
:1011FC005E04002060040020202838BF202038B571
:10120C00084D04460146286805F0E6FA18B1064B6D
:10121C0028601C7038BD2146BDE83840034804F0F6
:10122C0054BD00BF740400206D0400208E7C0008A7
:10123C0037B5164B05461B788DF80710DBB1144CEF
:10124C00144A207812780130904201D9FFF7D4FF6C
:10125C00114B186818B901236B6003B030BD0F4AED
:10126C009DF807101378C154137801200133DBB2B9
:10127C0013702370F1E701220DF10701143004F013
:10128C0053FEB0FA80F04009E7E700BF5C04002091
:10129C00600400206D040020740400205E04002013
:1012AC00044B186820B1044B00211A7805F0E1B901
:1012BC00704700BF700400206C040020044B1868B9
:1012CC0020B1044B00211A7805F0D3B9704700BF48
:1012DC00740400206D04002010B50024064B1C7013
:1012EC00064B1C70FFF7DCFF054B1C70054B1C708C
:1012FC00BDE81040FFF7E2BF5D0400205F04002052
:10130C005E04002060040020F8B5164B06461B78DE
:10131C000F461446EBB1144D144B28781B7810442F
:10132C00984201D9FFF768FF114B1B6823B90122C2
:10133C001C4672602046F8BD0E4E22463078394667
:10134C00184405F08BF933782344DBB233702B70DF
:10135C00F0E792B2143004F0E7FD002818BF002427
:10136C00E8E700BF5C040020600400206D0400204E
:10137C00740400205E040020002242604FF47A7254
:10138C008260054A0260054AD17F80F86C10927F1A
:10139C0080F86D20704700BF187D0008A8850008F4
:1013AC0073B500250E46184B04461D70174B1D7067
:1013BC00FFF776FF164B1D70164B1D70FFF77EFF67
:1013CC00332E08BF0122144B14BF657462741D7058
:1013DC00627C7300DBB204F11405237400920F4994
:1013EC004FF48042284604F0F5FC637C53B9284640
:1013FC000B4904F002FE28460A4902B0BDE87040D1
:10140C0004F0F4BD02B070BD5D0400205F04002048
:10141C005E040020600400205C040020A086010013
:10142C00E5110008091500083321FFF7B9BF0000CA
:10143C000122054B91401A70044B054A1970002388
:10144C001370044A137070475C0400207804002069
:10145C005E04002060040020C9B2FFF7E9BF000061
:10146C0038B5437CCBB10E4D0E4A0F492B78126820
:10147C000978143004F07CFD68B101280CBF0124FC
:10148C000424FFF71BFF0023084A2B701370084A33
:10149C001370204638BD0446F3E70424F9E700BF77
:1014AC006004002074040020780400205E040020F6
:1014BC005C0400200121FFF7D3BF000070B50C4D78
:1014CC002B78834212D2202838BF2020094E0446A4
:1014DC000146306805F080F910B12C70306070BD99
:1014EC002146BDE87040044804F0EFBB70BD00BF5E
:1014FC006C040020700400208E7C00082DE9F0475D
:10150C00134D80462B680C46FBB1124A124F1078D3
:10151C0039789146884218DB104E2046FFF7CEFFF3
:10152C00326822B940F283110D4804F0CEFB2246FA
:10153C004146306805F092F800233C7089F8003081
:10154C0020462B68BDE8F0471847BDE8F08700BF80
:10155C00640400205D0400205F040020700400205F
:10156C00A67C00080148FFF707BF00BFB8030020A6
:10157C00F0B5457EBDF81440022D0AD0032D14D0D1
:10158C00012D0ED1D24305892A4412B2002A11DA58
:10159C00F0BDD24345892A44CD18018912B2491BAA
:1015AC0009B2002A80F28C80F0BDCD184189491B0C
:1015BC0009B2EBE7B0F90850954252DD0029BEBFE5
:1015CC005B1800211BB2B0F90A00CD188542C4BFCC
:1015DC00431A1BB2002B44DDC9B2C808604E02EBA3
:1015EC00C01211F00701DBB206EB02051DD0C1F1F0
:1015FC000801C9B25B489942405C40F3A480FF27C4
:10160C00A1EB030E47FA0EF7012C00EA070004D0F9
:10161C0028D3022C00F09E80F0BDB75C3843994271
:10162C00B0541EDC5B1ADBB28035072B34D9022C8C
:10163C0005F180021AD1194612F8800C0839C04302
:10164C00C9B2072902F8800C02F18002F4D8A3F188
:10165C000802C2F3C402013213F0070305EBC215F2
:10166C007BD1F0BDB75C27EA0000D8E7012C0CBF9A
:10167C00FF20002019460839C9B2072902F8800C4E
:10168C0002F18002F7D8A3F10802C2F3C4020132BE
:10169C0005EBC21503F00703002BE2D0324A012CF4
:1016AC00D35C05D008D3022CDBD12A78534001E05F
:1016BC002A7813432B70F0BD2A7822EA0303F9E74A
:1016CC00B0F90A509542CCDD0029BEBF5B18002151
:1016DC001BB2B0F90800CD188542C4BF431A1BB227
:1016EC00002BBEDD082092FBF0F001EBC0111C4872
:1016FC00012C084402F007014FF0010202FA01F23A
:10170C00D2B203D00BD3022C14D0F0BD03448342CD
:10171C00A7D010F8014B144300F8014CF7E7D24363
:10172C000344D2B283429CD010F8014B144000F811
:10173C00014CF7E70344984293D010F8014B544006
:10174C0000F8014CF7E7012C3FF467AF8AD3022C69
:10175C007FF468AFB75C784061E7034AD35CA4E7D9
:10176C00140000200C00002004000020F0B5457E81
:10177C00BDF81440022D0AD0032D13D0012D0ED12B
:10178C00D5180289521B12B2002910DAF0BDC943D8
:10179C0005892944D518428909B2521B12B2002975
:1017AC004ADAF0BDC9434589294409B2ECE7B0F9DE
:1017BC000A508D4240F39580002ABEBF9B18002230
:1017CC001BB2B0F90800D5188542C4BF831A1BB2EE
:1017DC00002B40F38680082091FBF0F002EBC01246
:1017EC005D48012C104401F007024FF0010101FA91
:1017FC0002F1C9B203D00BD3022C14D0F0BD0344B8
:10180C0098426ED010F8014B0C4300F8014CF7E7EE
:10181C00C9430344C9B2984263D010F8014B0C4041
:10182C0000F8014CF7E7034498425AD010F8014BEA
:10183C004C4000F8014CF7E7B0F908508D4250DDF0
:10184C00002ABEBF9B1800221BB2B0F90A00D518A3
:10185C008542C4BF831A1BB2002B42DDD2B2D00822
:10186C003D4E01EBC01112F00702DBB206EB010595
:10187C001BD0C2F10802D2B238489A42805C5FDDBC
:10188C00FF27A2EB030E47FA0EF7012C00EA070024
:10189C0003D027D3022C58D0F0BD775C38439A4242
:1018AC0070541EDC9B1ADBB28035072B34D9022C0A
:1018BC0005F180021AD1194612F8800C0839C04380
:1018CC00C9B2072902F8800C02F18002F4D8A3F106
:1018DC000802C2F3C402013213F0070305EBC21570
:1018EC0036D1F0BD775C27EA0000D8E7012C0CBF9D
:1018FC00FF20002019460839C9B2072902F8800CCC
:10190C0002F18002F7D8A3F10802C2F3C40201323B
:10191C0005EBC21503F00703002BE2D0104A012C93
:10192C00D35C05D008D3022CDBD12A78534001E0DC
:10193C002A7813432B70F0BD2A7822EA0303F9E7C7
:10194C00012CAAD0CED3022CACD1775C7840A6E780
:10195C00034AD35CE9E700BF140000200C00002010
:10196C0004000020F8B50D1E064614461F4659DB30
:10197C0000F08AFE854255DA002C53DB304600F02D
:10198C0086FE84424EDA304600F07CFE02280ED0F1
:10199C00032815D0012804D1E443328922442C4673
:1019AC0015B2012F12D020D3022F2DD0F8BDE44355
:1019BC003189728901394D1B14442DB224B2F0E7E0
:1019CC007389013B5B1B25461CB2EAE7082194FB9B
:1019DC00F1F1154B09B205EBC11504F007045A5D82
:1019EC0007FA04F414435C55F8BD082194FBF1F19B
:1019FC00012209B20C4B04F0070405EBC115A240FF
:101A0C005C5D24EA0204EEE7082194FBF1F104F09A
:101A1C000702012409B2044B05EBC11594405A5D31
:101A2C005440E0E7F8BD00BF14000020012A4160DB
:101A3C0016BF00218272817202720BB9437205E0EB
:101A4C00012BFBD0022BF9D0032BF7D070470000F1
:101A5C0038B504460D462022802100F033FC074B9C
:101A6C0084F825502360FF2384F8223084F8263034
:101A7C0084F8243084F82330204638BD407D00089B
:101A8C004FF400720021014804F0F3BD1400002053
:101A9C0090F827302DE9F04105460F463BB1BDE8E3
:101AAC00F0410A46012323210E4800F03EBA0826D5
:101ABC008024002195F9230004F042FD17EA04016B
:101ACC0018BF012195F9220004F03AFD012195F986
:101ADC00230004F035FD013E4FEA5404E9D1BDE882
:101AEC00F08100BF7C04002038B590F92230044608
:101AFC0001330D4619D0012190F9260004F020FD88
:101B0C0094F92400002104F01BFD94F92600002117
:101B1C0004F016FD29462046FFF7BAFF94F926007B
:101B2C000121BDE8384004F00BBD90F920100848A5
:101B3C00FFF792FC00210648FFF77AFB2946044880
:101B4C00FFF776FBBDE838400148FFF7B3BC00BF98
:101B5C00B8030020F0B5044684F821101F4690F914
:101B6C00223089B001330E4680F8202000F0BE8070
:101B7C00012190F9240004F08FFC012194F9260036
:101B8C0004F08AFC94F827304BB9012194F9220017
:101B9C0004F082FC012194F9230004F07DFC94F8FC
:101BAC002730B3B12321534802AD00F05BF9002379
:101BBC00012251492846FFF739FF95E8070005AB8C
:101BCC0083E80700079A232100920CCB494800F0C8
:101BDC0071F9DFB194F92500002817DB012104F01D
:101BEC005BFC012194F9250004F0AAFC012004F00F
:101BFC00EFFC002194F9250004F0A2FC0A2004F06B
:101C0C00E7FC012194F9250004F09AFC2046AE2152
:101C1C00FFF76AFF2046D521FFF766FF204680219B
:101C2C00FFF762FF2046A821FFF75EFF20461F2129
:101C3C00FFF75AFF2046D321FFF756FF204600211D
:101C4C00FFF752FF20464021FFF74EFF8D21204623
:101C5C00FFF74AFF012E0CBF102114212046FFF77D
:101C6C0043FF20462021FFF73FFF20460021FFF7CE
:101C7C003BFF2046A121FFF737FF2046C821FFF785
:101C8C0033FF2046DA21FFF72FFF20460221FFF712
:101C9C002BFF20468121FFF727FF20468F21FFF7DE
:101CAC0023FFD9212046FFF71FFF012E0CBF222155
:101CBC00F1212046FFF718FF2046DB21FFF714FF28
:101CCC0020464021FFF710FF2046A421FFF70CFF10
:101CDC002046A621FFF708FF20462E21FFF704FF20
:101CEC00AF212046FFF700FF09B0F0BD0348FFF716
:101CFC009BFB6EE77C04002000127A00B8030020E6
:101D0C002DE9F84304462121FFF7EEFE0021204681
:101D1C00FFF7EAFE7F212046FFF7E6FE2221204650
:101D2C00FFF7E2FE00212046FFF7DEFE03212046EE
:101D3C00FFF7DAFE94F9223001331DD14FF0000881
:101D4C00214EDFF88890B8F5007F3ADA94F920102C
:101D5C003046FFF781FB40213046FFF769FA002738
:101D6C0008EB07050137112FADB225D019F8051076
:101D7C003046FFF75DFAF3E7012194F9260004F0F1
:101D8C00DFFB012194F9240004F0DAFB002194F923
:101D9C00260004F0D5FB00250C4E715D2046013564
:101DAC00FFF776FEB5F5007FF7D194F926000121F7
:101DBC00BDE8F84304F0C4BB3046FFF77BFBA846F4
:101DCC00C1E7BDE8F88300BFB80300201400002071
:101DDC00232970B504461DDC00230C26042BD8B235
:101DEC0006D006FB03F5655F0133A942F6D170BD41
:101DFC00012A0FD100230C22042BD8B21D4609D086
:101E0C00013302FB034636F90C6C0136F4D16A43FC
:101E1C00A15270BD042070BD70B503464FF6FF7221
:101E2C00012100250D4E00F130041A805E601972FC
:101E3C0099725D720C33A342F7D1094B02869A7EDC
:101E4C0080F89020DA7E80F891205B7E80F89230CA
:101E5C004FF0FF3380F8933070BD00BF00093D0098
:101E6C00A8850008232970B505460E4621DC012201
:101E7C00FFF7AEFF032804461BDC232E0BD095F98D
:101E8C009330013307D10121304604F005FB0121C9
:101E9C00304604F055FB0C20002300FB045085F861
:101EAC008530837A427A416805F1340003F0B2FD43
:101EBC002E8670BD82B0F8B5232906AC06460F46B7
:101ECC0084E80C002DDC0122FFF782FF0328054675
:101EDC0027DC0C2404FB0064079B63609DF8213015
:101EEC0063729DF82030012B237218BF0023232F1F
:101EFC00A3720BD096F99330013307D101213846E8
:101F0C0004F0CAFA0121384604F01AFB0C2303FB37
:101F1C0005656168AB7A6A7A06F1340003F07AFDE4
:101F2C003786BDE8F84002B0704770B586B08DF8C2
:101F3C000F200022232905460C461E468DF817203B
:101F4C0039DCB0F93030994212D0FFF741FF032849
:101F5C0003DD9DF8170006B070BD0C2303FB005089
:101F6C00837A427A416805F1340003F053FD2C86E4
:101F7C00232C07D095F99330013303D1002120464F
:101F8C0004F0DEFA4FF47A730DF1170200930DF1A1
:101F9C000F01012305F1340003F062FE232CD8D08D
:101FAC00012ED6D195F993300133D2D1314620464A
:101FBC0004F0C6FACDE71046CDE700000148FFF764
:101FCC002BBF00BF7C0400202DE9F04F1E4685B0CE
:101FDC00BDF9383015469A1A002AB8BF5242009201
:101FEC00721A002AB8BF524201920C46009A01990B
:101FFC0081468A42BDF83CA005DD32461E4613469A
:10200C0022462C461546B44205DD2A461D4613468B
:10201C002246344616465A1B002AB8BF5242039237
:10202C000222A6EB04081FFA88F80FFA88F79D42E3
:10203C00B4BF01234FF0FF3397FBF2F70293B44286
:10204C001FDC019A009B48469342D9F80030C8BF68
:10205C002246D3F810B0C8BF29465346DCBF2A46E7
:10206C002146D847039BFF1ABBB21FB2002F05DADB
:10207C00029A08EB030715442DB23FB2013424B287
:10208C00DDE705B0BDE8F08F10B40468A468A44681
:10209C0010BC604730B4BDF8085004680295246B3E
:1020AC00A44630BC604730B4BDF8085004680295B3
:1020BC00646BA44630BC604770B4BDF90C50BDF8DD
:1020CC001060046804960395A46BA44670BC60472A
:1020DC0070472DE9F3411C46164605460F4603682A
:1020EC00013CBDF82080DB683444984724B22B684F
:1020FC00CDF8048000941C6A28463B46324639468B
:10210C00A04728462B685B6A02B0BDE8F04118472F
:10211C002DE9F341174604461D460E460368BDF8EB
:10212C002080DB6898478DE8800122686B1E334461
:10213C00156A20461BB23A463146A847204623680A
:10214C005B6A02B0BDE8F04118472DE9F3471E4623
:10215C0003680C46DB6805461746BDF92880BDF8B8
:10216C002C9098472644B4422A680BDACDF800909C
:10217C00D2F818A0214643463A4628460134D047A7
:10218C0024B2F0E72846536A02B0BDE8F04718477E
:10219C0013B5B0F90E200468009200220191B0F939
:1021AC000C30A46B1146A04702B010BD2DE9F743CB
:1021BC009942904607460E461C46BDF92850BDF87C
:1021CC002C90026813D1A845C2BF4346A8461D46B1
:1021DC00CDF828906B1C146BA3EB080342463146D8
:1021EC003846A4461BB203B0BDE8F0436047A8458F
:1021FC000AD19942C2BF0B4626461C46CDF8289000
:10220C00631C9B1B546BE9E7D36898473B688DE8CC
:10221C00200238461D6A424623463146A8473846B6
:10222C003B685B6A03B0BDE8F04318472DE9F34700
:10223C000446884616461D460368BDF82C70DB68BC
:10224C00BDF92890984723680097D3F81CA0324614
:10225C002B4641462046D047236809F1FF320097B0
:10226C003244D3F81CA041462B46204612B2D0472C
:10227C0023680097D3F818A032464B4641462046B7
:10228C00D0472368691E009741449D6920464B4600
:10229C00324609B2A847204623685B6A02B0BDE803
:1022AC00F0471847704701F0030101294176038973
:1022BC00428904D0032902D08381C2817047828174
:1022CC00C381704730B50181002442818181C28174
:1022DC004FF6FF710122064D44600560447604827E
:1022EC0044820276C18281828276C476C46130BD1A
:1022FC00908200082DE9F04F91B090461E46C269BD
:10230C00BDF86830044604910393BDF86C909DF8B9
:10231C007050002A40F0B180B0F90C308B4240F381
:10232C002881B0F90E30434540F32381062303FB8B
:10233C000513002B40F31D8108EBC503002B40F364
:10234C001881C37E1BB9AF2EC4BF0136F6B2236809
:10235C002046DB68984705230C9300230593864B96
:10236C0006EB860633440F931FFA88F30793083362
:10237C009BB20E93059A0F9BBDF810A09B5CAEB25E
:10238C000893BDF8143006FB03A212B20B92079A05
:10239C0053440A92174609921BB22AB206920D9325
:1023AC00089BD90747D5012D236837D1D3F810B036
:1023BC00039B3AB20D992046D847089B01375B081E
:1023CC0008930A9BBFB233449BB20A93099B3344D4
:1023DC009BB209930E9BBB42E2D1059B01335BB2CE
:1023EC0005930C9B013B13F0FF030C93C2D1039B91
:1023FC004B450CD0012D236831D10AF10501CDF8E4
:10240C0000909D694246082309B22046A847204601
:10241C0023685B6A11B0BDE8F04F1847039A01922C
:10242C00069A0092D3F814B01346BDF928200B99E4
:10243C002046D847C1E7039B4B45BED0012D2368EE
:10244C0003D1D3F810B04B46B3E7069ACDF80490FD
:10245C000092D3F814B01346BDF92420E7E706EB3D
:10246C008601F6005144CDF8049000965E69424610
:10247C002B4609B22046B047C9E70027012D137A35
:10248C00D8BF4FF0000A5168A6EB0306F6B201EB79
:10249C00C60331F836903E46126893F906B00A929C
:1024AC009A78D8BFCDF818A00B92DA78C8BF0FFA7B
:1024BC008BFA0C9293F905200792C4BFBDF91C301E
:1024CC0006930368DB6898471FFA88F309935B440B
:1024DC0005970F930C9AFBB2934298DA4FF00008D1
:1024EC00AAB208920899099803EB0A0202FB0102AE
:1024FC0012B20D920F9A13441BB20E93059B0B9ABA
:10250C005FFA88F1CB189142DBB22FDA5A0701BF80
:10251C000A9A09F1010312F809601FFA83F93306CC
:10252C000DD5012D10D1049A079B20461344194454
:10253C0023680E9AD3F810B009B2039BD8477600E3
:10254C00F6B208F10108D9E7069A04981144089AE2
:10255C002BB201FB02010398226801900093D2F880
:10256C0014B009B20D9A2046D847E8E70137059315
:10257C00B0E711B0BDE8F08F887D00087FB5C26967
:10258C0004460B46002A31D10A2908D10282438A1B
:10259C00027E03EBC2036382012004B070BD0D29DF
:1025AC00FAD0817E007E69B10621B4F9105001FB8E
:1025BC000051B4F90C50A942C1BF2282628A02EBCD
:1025CC00C00262820290E08AB4F912200190A08AC3
:1025DC00B4F9101000902046FFF78CFE237E228A5F
:1025EC0003EB430302EB43032382D5E70A2907D10C
:1025FC0000230382937A017E428A01FB0323CAE7FC
:10260C000D29C9D0157AA942C6DB517A8B42C3DC9D
:10261C0051685D1B01EBC505AE7816B3E97801B3C3
:10262C00817E007E89B195F905103144B4F91060B2
:10263C0000FB0161B4F90C60B14206DD002121827E
:10264C00927A618A02FB001262820290E08AB4F9EB
:10265C0012200190A08AB4F9101000902046FFF7C8
:10266C0049FE2979237E228A01FB0323BCE70182E0
:10267C0042827047012938BF012101767047C1821F
:10268C0081827047407E7047B0F90C007047B0F9FA
:10269C000E0070474FF4803310B594B001220B93A9
:1026AC000021022412934FF4E0130AA80A920C9111
:1026BC000E921194139301F0EBFC00B1FEE70F2383
:1026CC0005934FF4806307900990214605A8069462
:1026DC00089301F0A5FE00B1FEE7122301934FF41D
:1026EC000043049001A8039301F072FF044600B16B
:1026FC00FEE701F047FF4FF47A73B0FBF3F000F004
:10270C0045FC042000F068FC224621464FF0FF30C7
:10271C0000F0FAFB14B010BDB0F86A300133DBB234
:10272C00A0F86A30B0F86A30B0F868009BB29842F2
:10273C004FF0FF3018BF00207047B0F87432B0F87B
:10274C007602181AC0B27047B0F87432B0F876221C
:10275C009BB293421ABFD0F87032985C4FF0FF30A6
:10276C007047B0F87422B0F8763292B29A421FBF1A
:10277C00D0F87022D25C0133DBB21ABFA0F87632EB
:10278C0010464FF0FF30704713B50DF107010446AA
:10279C0003F06AFD90B9B4F86030B4F862200133EC
:1027AC0003F0FF03934209D0B4F860209DF80700B2
:1027BC00E16D92B29BB28854A4F8603002B010BDA7
:1027CC00012310B5B0F87C420374E318DBB2B0F807
:1027DC007E2292B29342FAD0D0F87822115500F5AD
:1027EC000574A0F87C32204603F02CFD18B903497F
:1027FC00204603F081FD012010BD00BF25270008F5
:10280C00037C33B1B0F87C22B0F87E329BB29A4292
:10281C00FAD1704700F11103C0F87032002300F2B6
:10282C001112A0F87432A0F87632C0F87822A0F811
:10283C007C32A0F87E32704738B5002343604FF4E9
:10284C007A738360144B04460360144B0D46984214
:10285C000BD1134BDA7D9B7D80F86D2284F86C32A2
:10286C002046FFF7D7FF204638BD0E4B994205D1C5
:10287C000B4B9A7880F86D22DB78EFE70A492846F3
:10288C0003F06AF8094984F86D02284603F064F8ED
:10289C0084F86C02E4E700BF488600089407002027
:1028AC00A885000800380140308500086C850008B8
:1028BC0002F00703023BDBB2042B10B5C0F85C122C
:1028CC0096BF1D490023CB5C02F030013029044631
:1028DC0080F8802215D14FF4C061C4F8681201331E
:1028EC0012F0080218BF4FF40052082BC4F86422EF
:1028FC0010D0092B1CD040F25B11104803F0E5F905
:10290C000BE012F0200102D04FF48061E5E7C0F833
:10291C006812E5E70023C4F8603204F5057420461C
:10292C0003F0E0FB2046BDE81040054903F0B8BCBD
:10293C004FF48053EFE700BFCB850008D08500082B
:10294C009527000808B505490548FFF775FFBDE850
:10295C00084004490448FFF76FBF00BF003801402E
:10296C001005002000440040940700202DE9F041A0
:10297C0006460D460C4601EB02084445A4EB050740
:10298C0007D0336814F8011B1B68304698470028A1
:10299C00F3D13846BDE8F08170B505460C460846C3
:1029AC0049B1FDF7E3FB2B68024621462846BDE8FA
:1029BC0070405B68184770BD08B5FFF7EDFF08BDA8
:1029CC0003681B681847000008B50249FFF7E4FFCD
:1029DC0008BD00BF7686000838B50546FFF7DCFF5A
:1029EC0004462846FFF7F0FF204438BD0B46002173
:1029FC00012AD8BF0A2230B58BB08DF824100DF106
:102A0C002304B3FBF2F505FB1233DBB2092B94BFA5
:102A1C0030333733DBB2214604F801392B46002D15
:102A2C00EFD1FFF7B9FF0BB030BD2DE9F0410746F0
:102A3C000E4615462AB9BDE8F0410368C9B21B68B9
:102A4C0018470A2A05D1002905DBBDE8F041FFF73C
:102A5C00CDBFD2B2F9E72D21FFF7B2FF2A460446CB
:102A6C0071423846FFF7C2FF2044BDE8F0810000F8
:102A7C002DE9F84F19460546104692461F469DF81B
:102A8C002860FDF7CDFF00287CD04D4991E04FF038
:102A9C0060424C4B50463946FDF7B8FF08B14A49E5
:102AAC0087E04FF06042494B50463946FDF790FFA6
:102ABC000028F4D10022002350463946FDF788FF48
:102ACC00C8B12D212846FFF77BFF044607F10047CC
:102ADC004FF0000B00204FF000083D49DFF800914B
:102AEC005FFA8BF3B3420BF1010B06DA42464B460D
:102AFC00FDF726FEF4E70446EAE73B465246FDF7AF
:102B0C0043FB89468046FDF7C9FF0A22014607466A
:102B1C002846FFF76BFF0444002E4ED03846FDF7D5
:102B2C006FFC02460B4640464946FDF72BFB8046A0
:102B3C00894628462749FFF72FFF4FF0000ADFF898
:102B4C00A0B00444CEB35B46524640464946FDF71E
:102B5C00CDFC89468046FDF779FF0A2201460746DF
:102B6C002846FFF762FF04443846FDF759FC02463D
:102B7C000B4640464946FDF705FB013E804689461B
:102B8C00F6B2DFE727F000444FF0FF32124B50460D
:102B9C002146FDF745FF00287FF479AF4FF0FF3257
:102BAC000D4B50462146FDF71DFF00287FF46FAFFB
:102BBC000A492846FFF7F0FE04462046BDE8F88F88
:102BCC0072860008FFFFEF416C860008FFFFEFC123
:102BDC000000E03F70860008FFFFEF7F688600086A
:102BEC00000024409DF800100091FFF741BF37B55D
:102BFC009DF8181005460091FFF73AFF0446284649
:102C0C00FFF7E2FE204403B030BD10B5044603F0DC
:102C1C00DDFCE06023682046DB689847002808DA72
:102C2C0003F0D4FCE368C01AA3689842F2D34FF0C7
:102C3C00FF3010BD2DE9F04180460D460C468F1833
:102C4C00BC42A4EB050607D04046FFF7DEFF002888
:102C5C0002DB04F8010BF3E73046BDE8F0812DE907
:102C6C00F8438046894616461C467BB11546D71854
:102C7C00AF42A5EB060409D04046FFF7C6FF00287B
:102C8C0004DB484502D005F8010BF1E72046BDE80E
:102C9C00F88303681847012A03D0022A03D00020C6
:102CAC0070470160FBE70B680360F8E7836810B5B9
:102CBC00044613B1032201469847204610BD38B58F
:102CCC00002383608B6804460D462BB10222984783
:102CDC00EB68E360AB68A360204638BD22282DE981
:102CEC00F0418CBF4FF0FF38264B86B098BF13F9DC
:102CFC0000800F46C8F30310144602F03BFA054659
:102D0C0000283CD0042C96BF1F4B204E53F8246057
:102D1C001F4B5FFA88F49A6942F001029A619B6931
:102D2C0003F001030193019BA4F10D03012B0BD8BC
:102D3C00184B5A6822F0E06242F080625A60A4F1AB
:102D4C001303012B0AD802E0B8F10F0FF7D1114B86
:102D5C005A6822F0E06242F000725A60394602A8CA
:102D6C00FFF7ADFF012104F00F04A14028463346C4
:102D7C0002AA89B202F0EEFA02A8FFF797FF06B09A
:102D8C00BDE8F081A88500087C86000800001110C1
:102D9C000010024000000140002330B589B0044609
:102DAC001546029321B10B4B009103930A4B0293EE
:102DBC00694604A8FFF783FF2A4604A92046FFF7BB
:102DCC008DFF04A8FFF772FF6846FFF76FFF09B08D
:102DDC0030BD00BF9F2C0008A32C000808B5094B80
:102DEC001BB10948FFF7A9FC30B9084B4BB1084897
:102DFC00FFF7A3FC18B908BDAFF30080F5E7AFF3FC
:102E0C00008008BD0000000010050020000000003C
:102E1C0094070020FEE702F04ABA7047704708B5E5
:102E2C00032000F05FF8BDE80840FFF7F4BF000096
:102E3C0008B5FFF7F3FFFEF765F8044CFEF766F9EB
:102E4C00002CFBD0FFF7CAFFF8E700BFE92D000804
:102E5C007047000038B50E4B054618784FF47A735E
:102E6C00B3FBF0F30B4A1068B0FBF3F000F08EF8F4
:102E7C00044658B90F2D09D8024629464FF0FF30A9
:102E8C0000F042F8044B20461D6038BD012038BDCF
:102E9C00140200203002002018020020074A08B556
:102EAC001368032043F01003136000F01BF80F208D
:102EBC00FFF7D0FFFFF7CCFF002008BD0020024039
:102ECC00034A044B11681B780B441360704700BF16
:102EDC006C0C002014020020014B1868704700BFD6
:102EEC006C0C0020074A0002D36800F4E06023F465
:102EFC00E0631B041B0C43F0BF6343F40033034338
:102F0C00D360704700ED00E0174B30B5DC68C4F3BC
:102F1C000224C4F10703251D042B28BF0423062D0E
:102F2C004FF0010598BF002405FA03F303F1FF33BA
:102F3C0088BF033C1940A14005FA04F4013C22402F
:102F4C00002842EA01024FEA0212A9BF00F16040D8
:102F5C00064BD2B200F56140BBBF00F00F00D2B2FD
:102F6C0080F800231A5430BD00ED00E014ED00E0B1
:102F7C00002808DB0123420900F01F0003FA00F0CF
:102F8C00014B43F82200704700E100E00138B0F13A
:102F9C00807F0AD2F021064B064A586082F8231033
:102FAC000020072298601A6070470120704700BF0C
:102FBC0010E000E000ED00E0002809DB01224309ED
:102FCC0000F01F0002FA00F0024A603342F82300BE
:102FDC00704700BF00E100E0044B04281A680CBFE6
:102FEC0042F0040222F004021A60704710E000E084
:102FFC00704708B5FFF7FCFF08BD000090F82130C2
:10300C0010B5022B03D004238363012010BD036889
:10301C001A6822F00E021A601A6822F001021A6075
:10302C00184A93421FD0143293421ED0143293424A
:10303C001DD0143293421DD0143293421DD0143241
:10304C0093420CBF4FF480134FF080730E4A002450
:10305C005360012380F82130436B80F820407BB112
:10306C009847204610BD0123F0E71023EEE74FF4FC
:10307C008073EBE74FF48053E8E74FF48033E5E7D8
:10308C00184610BD08000240000002402DE9F74F21
:10309C0000221646654BDFF8A4E1DFF8A4C14FF01F
:1030AC0001080C6808FA06F808EA0404A0457FD168
:1030BC004D68122D00F0AF8000F28880022D00F0D8
:1030CC00A7807CD8002D00F08E80012D00F09E8012
:1030DC004FF00F09FF2C93BF824606F18045083D47
:1030EC00D0F800B092BFB500D0F804B0AD0009FA2A
:1030FC0005F82BEA080802FA05F588BF00F1040A66
:10310C0048EA0505CAF80050D1F804A01AF0805F0F
:10311C004ED0474D464FAD6926F0030845F00105EA
:10312C00BD61BD6908F1804805F00105019508F500
:10313C00803806F0030B019D4FEA8B0BD8F8085032
:10314C0009FA0BF925EA09093A4DA84268D005F5A8
:10315C008065A84266D005F58065A84264D005F567
:10316C008065A8420CBF0325042505FA0BF545EA3A
:10317C000905C8F808501D681AF4803F14BF254390
:10318C00A5431D605D681AF4003F14BF2543A54399
:10319C005D609D681AF4801F14BF2543A5439D6094
:1031AC00DD681AF4001F14BF2C4325EA0404DC600C
:1031BC000136102E7FF473AF03B0BDE8F08F032DF2
:1031CC0022D0112D84D1CA68043281E71A4FBD4236
:1031DC0009D012D8DFF86C904D4504D009F5803930
:1031EC004D457FF475AF8A68C2B1012A0CBFC0F897
:1031FC001080C0F8148008226AE77545F3D0654545
:10320C00F1D0DFF84490EBE7002261E7CA685FE792
:10321C00CA6808325CE7CA680C3259E7042257E7DF
:10322C000025A2E70125A0E702259EE70004014046
:10323C000010024000080140000021100000311075
:10324C0000003210000011100000221008B5044BD1
:10325C005969014202D0586102F040F808BD00BF24
:10326C00000401402DE9F843044690461F46089E91
:10327C00C1F307498DB22368B9F1010F0CBF5B692B
:10328C009B6935EA03030CBF01230023434502D09D
:10329C000020BDE8F8837B1CEDD05FB90023202211
:1032AC00236384F83C3084F83D20032084F83E30BE
:1032BC00BDE8F883FFF710FE801B8742DBD2EDE7F9
:1032CC007047000038B5044608B9012038BD90F8A5
:1032DC003D3003F0FF021BB980F83C20FFF7F0FFF4
:1032EC002423226884F83D30136823F00103136013
:1032FC0001F04EF963682F4A934230D82E4A90421F
:10330C00E3D92E4A2168B0FBF2F24A6001320A621C
:10331C00284A0138934232D85B00B0FBF3F0431CCF
:10332C00C3F30B03042B38BF0423CB61226AE3697C
:10333C00002013430B60E268236913438B60A2697E
:10334C0063691343CB600B6843F001030B602023CC
:10335C00206484F83D30206384F83E0038BD184A60
:10336C009042B2D9154D4FF49672B0FBF5F5216829
:10337C006A434D604FF47A75B2FBF5F2C6E7A2686A
:10338C0052B903EB4303B0FBF3F0431CC3F30B0341
:10339C006BB143F40043C8E719225343B0FBF3F07D
:1033AC00431CC3F30B0313B143F44043BDE70123A8
:1033BC00BBE700BFA08601007F841E0040420F00C7
:1033CC00FF083D0037B50024019490F83D40202CB7
:1033DC0002D0022003B030BD46F2A815214C24685F
:1033EC00B4FBF5F519246C430194019C651E019501
:1033FC003CB92023046380F83C4080F83D30032026
:10340C00E8E70468A569AD07EFD490F83C50012DAE
:10341C00DFD0012580F83C502568ED075EBF25689C
:10342C0045F001052560256825F4006525602125FA
:10343C0080F83D50102580F83E50002505644385EA
:10344C00094B4262C362438D41640385236843F494
:10345C0080732360636880F83C5043F4E0636360DE
:10346C002846B7E7300200200000FFFF37B590F880
:10347C003D40282C34D1002930D0002A2ED090F891
:10348C003C40012C2CD00124056880F83C402C6871
:10349C00E4075EBF2C6844F001042C602C6824F413
:1034AC0000642C60292480F83D40202480F83E40A4
:1034BC00002404644285C362438D019403856B69C7
:1034CC0041620193AB6980F83C4020460193019B1B
:1034DC006B6843F4E0636B6003B030BD0120FBE725
:1034EC000220F9E737B590F83D40282C34D100295B
:1034FC0030D0002A2ED090F83C40012C2CD0012446
:10350C00056880F83C402C68E4075EBF2C6844F0EA
:10351C0001042C602C6824F400642C602A2480F8AC
:10352C003D40202480F83E40002404644285C36260
:10353C00438D019403856B6941620193AB6980F8FB
:10354C003C4020460193019B6B6843F4E0636B6045
:10355C0003B030BD0120FBE70220F9E790F83D30C5
:10356C00202B14D1282380F83D30036800201A68E2
:10357C00D2075EBF1A6842F001021A601A6842F460
:10358C0080621A605A6842F440725A607047022096
:10359C00704700002DE9F04F044685B098468946E7
:1035AC009246FFF799FC94F83D300646202B03D049
:1035BC00022005B0BDE8F08F0090192301224B4981
:1035CC002046FFF74FFE0028F2D194F83C30012B37
:1035DC00EED0012384F83C30236800251A68DFF80C
:1035EC000CB1D20758BF1A6809F0FE095CBF42F053
:1035FC0001021A601A6822F400621A60242384F80B
:10360C003D303B4B2564E36222684FF00111136897
:10361C00204643F480731360009643460022FFF764
:10362C0021FE08B10320C4E72368A027C3F810903B
:10363C00FFF752FC0646236859695A6994F83D30E5
:10364C00C1F34001C2F38022DBB211B90AB9A02B3D
:10365C0020D12027236884F83D705A6912F0020F9C
:10366C001A6842F400721A602AD0002203925A6936
:10367C001E4903929B6901220393039B0096192315
:10368C002046FFF7EFFD0028CCD184F83D7084F87C
:10369C003C008EE7B8F1000F0CD184F83D70236824
:1036AC0059695A6994F83D30C1F34001C2F3802244
:1036BC00DBB2CAE7FFF710FC801B8045EDD3EEE7C9
:1036CC006FF4806259465A612046009619230122F4
:1036DC00FFF7C8FD0028A5D10135AA4594D884F878
:1036EC003C0084F83D70012063E700BF020010002D
:1036FC000000FFFF7047704770477047704700002D
:10370C0090F83D3010B5293B012B0446036839D89D
:10371C0000220263282280F83D201A6822F40062FD
:10372C001A605A6812F4006254D05A68606B22F422
:10373C0000625A6090F82130012B394B31D0436331
:10374C00FFF75CFC50B12268606B136823F0010337
:10375C001360202384F83D30436B984794F83D3038
:10376C00282B0ED1236C5B070BD52E4B2022E3624A
:10377C0000232046236384F83D2084F83E3002F079
:10378C0066FC10BD90F83D20602A05D05A681205E1
:10379C005CBF202280F83D200022226384F83E206A
:1037AC00BBE7A06B4363FFF729FC0028D6D0226847
:1037BC005369580604D5636A1269591C61621A7000
:1037CC002268A06B136823F001031360202384F894
:1037DC003D30C1E794F83D10602914D1202184F8C4
:1037EC003D1022645A69510604D5626A1B69511C4A
:1037FC006162137022682046136823F00103136082
:10380C00FFF77CFFAAE75A69520604D5626A1B6966
:10381C00511C61621370204602F046FC9EE700BF0B
:10382C00454000080000FFFF0368F0B59D69596929
:10383C005A6890F83E408DB0E4B2102C02D0402C67
:10384C0040F0568211F0011F66D0970564D590F8B0
:10385C003E40402C43D1046D002C3BD1446C04F011
:10386C00FE041C61944E954C2E400C40002E00F032
:10387C00A281934D0D40002D00F06981550540F15A
:10388C006681002C40F0638190F83D20058D90F806
:10389C003E10D2B2C9B2C46A002D40F01781212A61
:1038AC0040F01681042C00F06F81082C00F06C8124
:1038BC0014F5803F00F068815A6822F4E0625A6087
:1038CC001123036380F83E50202380F83D30FFF72E
:1038DC0011FF18E1446C44F00104E4B2C1E704693F
:1038EC00B4F5804F05D190F83D40212C446CF2D1B9
:1038FC00B5E7046D34B9446CE41104F0060444F0EB
:10390C00F004AEE7046D012CACD1446CE41104F06E
:10391C00060444F0F104A4E76A4C0C401CB1960573
:10392C0001D5446CD9E7684C0C40002C9AD0940516
:10393C0098D590F83E40C66AD0F830E090F83D70CB
:10394C00E4B2222F40F0AF80076D47B9402C06D16E
:10395C0000975C6900949C690094009C82E7046D5C
:10396C008CB90769B7F5404F0DD101945C6901948E
:10397C009C690194019C1C6844F480741C60046D67
:10398C00013404656EE7448DA4B254B902945C69A9
:10399C0002949C690294029C1C6844F400741C60A0
:1039AC0019E0448DA4B2012C42D116F5803F1BD1F5
:1039BC001C6824F480641C605C6814F400640CD0F3
:1039CC001C6824F480641C60002403945C690394D8
:1039DC009C690394039C0024D3E704945C690494CD
:1039EC009C690494049CD7E7042E15D0082E13D0A0
:1039FC00BEF1120F10D0C46A022C1C6814BF24F440
:103A0C00806444F480641C60002405945C69059413
:103A1C009C690594059CDEE71C6824F480641C609A
:103A2C00002406945C6906949C690694069CB3E792
:103A3C00448DA4B2022C23D1C46A0026022C1C682B
:103A4C0014D044F400641C6007965C6907949C696C
:103A5C000794079C1C6824F480641C605C68270530
:103A6C00B9D55C6844F480545C60B4E744F4806479
:103A7C001C6008965C6908949C690894089CEDE7A6
:103A8C001C6844F480641C605C68260542BF5C685A
:103A9C0044F480545C60002409945C6909949C692A
:103AAC000994099C97E700240A945C690A949C6920
:103ABC000A940A9CD6E600BF040010000400010022
:103ACC00800001000800010002000100212A03D03F
:103ADC00402918D1222A16D1428D92B222B95A68A5
:103AEC0022F480625A600EE090F83E20402A28D1E1
:103AFC00026D82B9C26C012A826C06D1D2B21A61F3
:103B0C00036D023303650DB0F0BDC2F307221A61D9
:103B1C00036D0133F6E7026D012A02D1826CD2B239
:103B2C00F5E7026D022AEED190F83D20222A04D14D
:103B3C001A6842F480721A60E5E790F83D20212A59
:103B4C00E1D1426A511C416212781A6199E0002C51
:103B5C00D9D09405D7D5C16A90F83D20212AD2D16D
:103B6C00428D92B2002AECD104290DD008290BD039
:103B7C0011F5803F08D0596821F4E0615960112398
:103B8C00036380F83E209FE65A6822F4E0625A6094
:103B9C001A6842F400721A6000232022036380F832
:103BAC003D2090F83E2080F83E30402A7FF48FAEC6
:103BBC00FFF7A2FDA7E78F4D0D40002D46D0510514
:103BCC0044D5002C42D190F83D20222A9BD1428D25
:103BDC0092B2032A05D9426A1B69511C41621370C7
:103BEC004FE0023A012AC26A0DD8022A1A681DBF98
:103BFC0022F480621A601A6842F4806218BF42F4A0
:103C0C0000621A606BE7022A1A6814BF22F4806201
:103C1C0042F480621A605A6822F4E0625A60426A86
:103C2C001B69511C41621370438D013B9BB2438550
:103C3C00202380F83D300023036390F83E2080F869
:103C4C003E30402A51D1FFF758FD5CE7002C3FF481
:103C5C005AAF97057FF557AFC26A418D89B20329D8
:103C6C00416A13D1042A04D0082A02D012F5803FED
:103C7C0003D11A6822F480621A601B694A1C4262E2
:103C8C000B70438D013B9BB243853CE7448DA4B242
:103C9C00022CF2D1042A1FD0082A1DD012F5803F25
:103CAC001AD0022A1A6814BF22F4806242F480628D
:103CBC001A605A6822F440725A601B694A1C4262AC
:103CCC000B70438D013B9BB24385436A5A1C426285
:103CDC00026812691A70A7E75A6822F440725A6097
:103CEC001A6842F400721A60E7E7FFF704FD0AE76E
:103CFC00414C0C4074B196050CD599699B6981F0C7
:103D0C0004011D06C1F3800154BF8289028B02F0AD
:103D1C007BF9F8E6394C0C40002C73D0940571D526
:103D2C0090F83D205968D2B221F4E061596000212D
:103D3C000B9159690B91196841F0010119600B99AC
:103D4C00196821F480611960596809050CD590F83F
:103D5C003D10222903D090F83D102A2929D1816BDE
:103D6C000968496889B24185418D89B2E1B15969C7
:103D7C004F0708D5416A1B694C1C44620B70438D7C
:103D8C00013B9BB2438501684B695E0608D5436ACB
:103D9C0009695C1C44621970438D013B9BB24385DD
:103DAC00036C43F004030364036C23B1FFF7A8FC1A
:103DBC00A9E6416BD4E7A2F1280102290AD8104ADE
:103DCC00C2622022036380F83D2080F83E3002F06E
:103DDC003EF998E6036B222B02D0222A7FF493AE95
:103DEC0000232022036380F83D2080F83E3002F04F
:103DFC0045F988E6400001000200010010000100B6
:103E0C000000FFFF394E3A4C2E400C40002E36D0AD
:103E1C00384D0D403DB3550525D524BB90F83D10CC
:103E2C00428DC9B292B2002A3FF46DAE426A541C64
:103E3C00446212781A61428D013A92B24285428DE7
:103E4C0092B2002A7FF45FAE29297FF45CAE5A68E7
:103E5C0022F480625A6021230363282380F83D30CA
:103E6C0002F01EF94FE6002C3FF44DAE94057FF5A1
:103E7C004AAE428D92B2002A7FF463AE43E61E4DE9
:103E8C000D4035B3510524D51CBB90F83D20418D18
:103E9C00D2B289B200293FF436AE416A1B694C1C80
:103EAC0044620B70438D013B9BB24385438D9BB2A7
:103EBC00002B7FF428AE2A2A7FF425AE02685368C3
:103ECC0023F48063536022230363282380F83D305E
:103EDC008DE7002C3FF417AE92057FF514AE428DA2
:103EEC0092B2002A7FF477AE0DE600BF04001000FA
:103EFC00040001008000010040000100F8B50368D7
:103F0C004B4A5E69044616425D680CD0E8050AD53A
:103F1C00226C42F0010222646FF480725A611A68BA
:103F2C0042F400421A6016F4813F08D0E90506D528
:103F3C00226C42F0020222646FF400725A6116F491
:103F4C00823F36D0EA0534D594F83E70618D94F8F2
:103F5C003D20202F89B2D2B2206B58D1002956D1E6
:103F6C0002F0F701212903D0282A50D121284ED163
:103F7C0094F83D20E16AD2B2042901D008292CD151
:103F8C00282A2AD12B4A2046E2625A6822F4E0629F
:103F9C005A606FF480625A611A6822F480621A6067
:103FAC0000232022236384F83D2084F83E3002F065
:103FBC004EF816F4843F09D0EB0507D56FF4006278
:103FCC00236C43F00803236423685A61236C73B396
:103FDC002046BDE8F840FFF793BB212A23D11549B1
:103FEC002046E1622263202284F83D20002284F8DE
:103FFC003E205A6822F4E0625A606FF480625A6183
:10400C001A6822F480621A6002F04AF8D1E7226C36
:10401C0042F00402226494F83E20102A02BF1A686F
:10402C0042F400721A606FF480625A61C1E7F8BD05
:10403C00000101000000FFFF406A08B50368416BF6
:10404C001A6822F480621A60002242854A63816BEE
:10405C004A6390F83D1060294FF0200180F83D1024
:10406C0080F83E2007D102641A6822F001021A601F
:10407C00FFF744FB08BD1A6822F001021A6002F037
:10408C0013F808BD90F83D007047006C70470000B5
:10409C0003682DE9F341DB07054610D42B689F0715
:1040AC005ED42B68190700F195802B685A0700F134
:1040BC00BF80EA69002A40F02D81002014E0904C6A
:1040CC00636803F00C03042B07D0636803F00C0344
:1040DC00082B0CD16368DE0309D523689C03DDD55E
:1040EC006B68002BDAD1012002B0BDE8F0816B685F
:1040FC00B3F5803F10D1236843F480332360FEF77F
:10410C00EBFE064623689803C8D4FEF7E5FE801B39
:10411C006428F7D90320E7E79BB9236823F480339D
:10412C002360236823F480232360FEF7D5FE064624
:10413C0023689903B2D5FEF7CFFE801B6428F7D90C
:10414C00E8E7B3F5A02F236803D143F48023236061
:10415C00D1E723F480332360236823F48023CDE755
:10416C00674C636813F00C0F07D0636803F00C0303
:10417C00082B10D16368DA030DD423689B0702D592
:10418C002B69012BAFD123686A6923F0F80343EA4A
:10419C00C203236085E72A695A4B6AB101221A606F
:1041AC00FEF79AFE064623689F07ECD4FEF794FEB2
:1041BC00801B0228F7D9ADE71A60FEF78DFE064684
:1041CC00236898077FF56DAFFEF786FE801B0228EB
:1041DC00F6D99FE7AA694A4C4B4BDAB101221A6017
:1041EC00FEF77AFE0646636A9B070DD54FF4FA522A
:1041FC00464B1B68B3FBF2F3019300BF019B5A1EA5
:10420C000192002BF9D150E7FEF766FE801B0228C5
:10421C00E9D97FE71A60FEF75FFE0646636A9F07DF
:10422C007FF543AFFEF758FE801B0228F6D971E7E5
:10423C00334CE369D80024D40127E36943F080535D
:10424C00E361E36903F080530093009B304E3368C5
:10425C00D90518D5EB68012B26D1236A43F001034D
:10426C002362FEF739FE41F288368046236A9B07AB
:10427C003FD5002F3FF41DAFE36923F08053E3617A
:10428C0017E70027E2E7336843F480733360FEF7E7
:10429C0023FE80463368DA05DCD4FEF71DFEA0EB66
:1042AC0008006428F6D935E7ABB9236A41F288389F
:1042BC0023F001032362236A23F004032362FEF735
:1042CC000BFE0646236A9807D3D5FEF705FE801B26
:1042DC004045F7D91EE7052B236A03D143F00403AD
:1042EC002362BAE723F001032362236A23F0040359
:1042FC00B6E7FEF7F1FDA0EB0800B042B6D909E72E
:10430C000010024000004242800442423002002071
:10431C0000700040224C636803F00C03082B3FF440
:10432C00E2AE00231F4E022A33602BD1FEF7D4FDE0
:10433C000746236899011FD42B6AB3F5803F05D13A
:10434C006268A96822F400320A436260696A626892
:10435C000B4322F474121343636001233360FEF7A2
:10436C00BBFD054623689A013FF5A7AEFEF7B4FDE9
:10437C00401B0228F6D9CDE6FEF7AEFDC01B022885
:10438C00D7D9C7E6FEF7A8FD054623689B017FF544
:10439C0094AEFEF7A1FD401B0228F6D9BAE600BF89
:1043AC00001002406000424230B5194B87B002AC9D
:1043BC0003F11005224618685968083303C2AB4252
:1043CC001446F7D101238DF80430022311498DF8DE
:1043DC0005304B6803F00C02082A17D1C3F3834253
:1043EC0006A80244DB0312F8102C0CD54B680A48C3
:1043FC00C3F34043504306AA134413F8143CB0FBD8
:10440C00F3F007B030BD05485043FAE70248F8E72F
:10441C00407C00080010024000127A0000093D00A8
:10442C00544A2DE9F0411368054603F007038B420B
:10443C000E462AD329688C0734D4CA0747D44D4A70
:10444C00136803F007039E42C0F082802A684A4C2E
:10445C0012F0040F40F08780130706D563682A69B1
:10446C0023F4605343EAC2036360FFF79DFF636864
:10447C00424AC3F30313D35CD840414B18600F205E
:10448C00FEF7E8FC0020BDE8F081136823F0070379
:10449C000B431360136803F007039942CAD0012041
:1044AC00BDE8F081344B11F0040F1EBF5A6842F482
:1044BC00E0625A60080742BF5A6842F460525A6080
:1044CC005A68A86822F0F00202435A60B5E76A689D
:1044DC00294C012A23681CD113F4003FDFD06368F8
:1044EC0041F2883823F0030313436360FEF7F4FCB6
:1044FC006B680746012B14D1636803F00C03042B83
:10450C009DD0FEF7E9FCC01B4045F5D90320BDE862
:10451C00F081022A02D113F0007FDFE713F0020FC3
:10452C00DCE7022B0FD1636803F00C03082B86D059
:10453C00FEF7D2FCC01B4045F5D9E7E7FEF7CCFCF3
:10454C00C01B4045E2D8636813F00C0FF6D176E738
:10455C00136823F0070333431360136803F0070356
:10456C009E429CD172E76368E96823F4E0630B43D5
:10457C00636071E700200240001002403C87000895
:10458C0030020020014B1868704700BF3002002039
:10459C00044B054A5B68C3F30223D35C034A1068DF
:1045AC00D8407047001002404C87000830020020B1
:1045BC00044B054A5B68C3F3C223D35C034A1068FF
:1045CC00D8407047001002404C8700083002002091
:1045DC0003682DE9F341D907054620D5354CE3692D
:1045EC00DA0032D40127E36943F08053E361E369D5
:1045FC0003F080530193019B2F4E3368DB0526D5C6
:10460C00236A13F4407336D1236A6A6823F4407327
:10461C00134323621FB1E36923F08053E3612868DD
:10462C00830706D5234AA968536823F440430B43F8
:10463C00536010F010001BD01E4AE968536800202C
:10464C0023F480030B43536012E00027D4E7336854
:10465C0043F480733360FEF73FFC80463368D80523
:10466C00CED4FEF739FCA0EB08006428F6D9032061
:10467C0002B0BDE8F0816A6802F440729342C3D084
:10468C0001200E4A236A1060002023F44071106050
:10469C002162D907B8D5FEF71FFC41F288380646CF
:1046AC00236A9A07B0D4FEF717FC801B4045F7D954
:1046BC00DDE700BF001002400070004040044242A1
:1046CC00036810B51A680446920708D55B689B0707
:1046DC0005D501F061F96FF0020223685A604FF4BE
:1046EC000032024B5A610123637410BD0004014077
:1046FC002DE9F0410446884617461D46069E226861
:10470C00936838EA03030CBF012300239F4202D1B4
:10471C000020BDE8F0816B1CF2D055BB23685A68B1
:10472C0022F0E0025A606268B2F5827F0AD1A26878
:10473C00B2F5004F02D0B2F5806F03D11A6822F0A7
:10474C0040021A60A26AB2F5005F09D11A6822F41D
:10475C0000521204120C1A601A6842F400521A60C9
:10476C00012384F851300023032084F85030BDE835
:10477C00F081FEF7B1FB801B8542C0D8CEE713B5A4
:10478C000B460092802100220446FFF7B1FF20B1B6
:10479C000320636D43F02003636502B010BD7047C6
:1047AC002DE9F0439946002385B0ADF80A3090F816
:1047BC0050300446012B0D4690460C9E00F05A8159
:1047CC00012380F85030FEF787FB94F851300746F0
:1047DC00DBB2012B61680AD0B1F5827F40F04881D1
:1047EC00A268002A40F04481042B40F04181002D46
:1047FC0000F02B81B8F1000F00F02781B9F1000F08
:10480C0000F0238194F85130C4F83880012B04BF98
:10481C00052384F851300023636523646364A36A21
:10482C00A4F83E90B3F5005FA4F83C902563A4F87F
:10483C003690A4F83490236809D11A6822F40052F7
:10484C001204120C1A601A6842F400521A601A68A8
:10485C0050065EBF1A6842F040021A60E268B2F578
:10486C00006F6BD119B1E28E92B2012A06D135F8E4
:10487C00022BDA60E38E013B9BB2E3864FF0010919
:10488C00E38E9BB2B3B9E38F9BB29BB9A36AB3F52A
:10489C00005F40F0AE80012200973346114620465F
:1048AC00FFF726FF002800F09D80636D43F00203A4
:1048BC00636535E0B9F1000F1BD0E38E9BB2C3B139
:1048CC0022689368990714D535F8023BD360E38EC0
:1048DC00013B9BB2E386E38E1FFA83F9B9F1000F1B
:1048EC0029D1A16AB1F5005F03D1116841F480515F
:1048FC001160E38F9BB263B123689A68D20708D525
:10490C004FF00109DB6828F8023BE38F013B9BB2B7
:10491C00E387701CB4D0FEF7DFFAC01B8642AFD819
:10492C000325012384F85130002384F850302846A5
:10493C0005B0BDE8F0834FF00009DAE719B1E28E5B
:10494C0092B2012A06D115F8012B1A73E38E013BA2
:10495C009BB2E3864FF00109E38E9BB21BB9E38F48
:10496C009BB2002B92D0B9F1000F21D0E38E9BB2F9
:10497C00F3B123689A6891071AD52A78691C1A73BF
:10498C00E38E013B9BB2E386E38E1FFA83F9B9F108
:10499C00000F0AD1A26AB2F5005F04D12068026848
:1049AC0042F4805202600D4602E00D464FF00009C1
:1049BC00E38F9BB273B123689A68D2070AD54FF084
:1049CC000109DB6808F1010808F8013CE38F013BA1
:1049DC009BB2E387731CBFD0FEF77EFAC01B8642E6
:1049EC00BAD89DE72368DB689BB2ADF80A30BDF8F6
:1049FC000A3023689D6815F0100514D0204600F08D
:104A0C0079F80128236822D10546626D42F0020232
:104A1C0062651A6822F400521204120C1A601A68A9
:104A2C0042F400521A6000973346012202212046BC
:104A3C00FFF75EFE00287FF473AF3A4631462046FE
:104A4C00FFF79DFE40B120236365012569E74FF612
:104A5C00EF7200259A60E6E7A368002B7FF461AF44
:104A6C0003932368DA6803929B680393039B58E7CC
:104A7C00022556E702255AE710B50446002834D023
:104A8C0090F851300BB9FFF78AFE0223216884F8A5
:104A9C0051300B68A06823F040030B606368A26977
:104AAC000343E06803432069034360690343E069FF
:104ABC000343206A0343A06A034302F400700343D8
:104ACC0000200B60120C636A02F004021A43E36AC2
:104ADC004A600B61CB6923F40063CB61044B6065C6
:104AEC001870012384F8513010BD012010BD00BF97
:104AFC00180A002001207047022341F2111210B550
:104B0C0080F83D3003680446196A114208D140F21E
:104B1C004442196A114202BF1A6822F001021A605B
:104B2C00204600F08DFB002084F83D0084F83C000A
:104B3C0010BD704770477047036810B51A6904467A
:104B4C0091070ED5DA6892070BD56FF002021A6145
:104B5C0001229B6902779B0777D0FFF7EAFF0023BE
:104B6C00237723681A69500710D5DA6851070DD5D9
:104B7C006FF004021A6102229B69227713F4407FC2
:104B8C00204668D0FFF7D5FF0023237723681A69E6
:104B9C0012070FD5DA6810070CD56FF008021A61EE
:104BAC000422DB692277990720465AD0FFF7C1FF10
:104BBC000023237723681A69D20610D5DA68D00649
:104BCC000DD56FF010021A610822DB69227713F4FD
:104BDC00407F20464BD0FFF7ACFF002323772368A0
:104BEC001A69D10708D5DA68D20705D56FF001022A
:104BFC0020461A6101F0C7F823681A69100608D517
:104C0C00DA68110605D56FF0800220461A6100F0B3
:104C1C00A3F823681A69520608D5DA68500605D538
:104C2C006FF0400220461A61FFF785FF23681A696E
:104C3C00910622D5DA6892061FD56FF02002204625
:104C4C00BDE810401A6100F086B801F093F82046D8
:104C5C00FFF770FF83E701F08DF82046FFF76AFF3E
:104C6C0092E701F087F82046FFF764FFA0E701F018
:104C7C0081F82046FFF75EFFAFE710BD10B50124A9
:104C8C00036A8C4023EA04030362036A8A401A43D2
:104C9C00026210BD10B5044600220068FFF7EEFF5B
:104CAC002368124A93420DD141F21112196A114232
:104CBC0008D140F24442196A114202BF5A6C22F4E4
:104CCC0000425A6441F21112196A114208D140F2A1
:104CDC004442196A114202BF1A6822F001021A609A
:104CEC000123002084F83D3010BD00BF002C014092
:104CFC0010B50424036A8C4023EA04030362036A9C
:104D0C008A401A43026210BD10B5044600220068A6
:104D1C00FFF7EEFF41F211122368196A114208D114
:104D2C0040F24442196A114202BF5A6C22F400420A
:104D3C005A6441F21112196A114208D140F24442EC
:104D4C00196A114202BF1A6822F001021A6000208F
:104D5C0010BDFFF7D9BF704770470368DA6822F4BB
:104D6C009072DA605A6922F001025A61202380F8AD
:104D7C003A3070472DE9F0470568C2682B69016924
:104D8C0023F4405313432B618368EA680B43416956
:104D9C0022F4B05222F00C020B431343EB606B690C
:104DAC00826923F4407313436B61404B81469D42EF
:104DBC004FF0190446D1FFF7FBFB04FB00F3D9F8C5
:104DCC0004604FF06408B600B3FBF6F3B3FBF8F3E2
:104DDC001E01FFF7EDFB6043D9F804309B00B0FBDC
:104DEC00F3F7FFF7E5FB6043D9F804309B00B0FB09
:104DFC00F3F3B3FBF8F308FB13731B013233B3FB70
:104E0C00F8F303F0F007FFF7D3FB6043D9F8042065
:104E1C009200B0FBF2FAFFF7CBFB6043D9F80430F9
:104E2C009B00B0FBF3F3B3FBF8F308FB13A31B01DC
:104E3C003233B3FBF8F303F00F033B433344AB6063
:104E4C00BDE8F087FFF7A4FB04FB00F3D9F804607E
:104E5C004FF06408B600B3FBF6F3B3FBF8F31E0196
:104E6C00FFF796FB6043D9F804309B00B0FBF3F7D7
:104E7C00FFF78EFB6043D9F804309B00B0FBF3F3D3
:104E8C00B3FBF8F308FB13731B013233B3FBF8F3DA
:104E9C0003F0F007FFF77CFB6043D9F80420920085
:104EAC00B0FBF2FAFFF774FBB7E700BF0038014024
:104EBC00704710B5044640B390F8393003F0FF0248
:104ECC001BB980F83820FFF7F3FF2423226884F8FD
:104EDC003930D368204623F40053D360FFF74AFFE0
:104EEC00236800201A6922F490421A615A6922F050
:104EFC002A025A61DA6842F40052DA602023E06335
:104F0C0084F8393084F83A3010BD012010BD90F887
:104F1C003930202B18D1A9B1A2B190F83830012B1F
:104F2C0012D0C28482840023212201620168C363EF
:104F3C0080F83920CA6880F8383042F08002CA60A4
:104F4C0018467047012070470220704790F83A309D
:104F5C00202B20D1E9B1E2B190F83830012B1AD0D6
:104F6C00C285828500232222C36380F83A2002681E
:104F7C008162D16880F8383041F48071D160516918
:104F8C00184641F001015161D16841F02001D16016
:104F9C007047012070470220704790F83A3010B5E6
:104FAC00222B36D183680169B3F5805F0268836A6E
:104FBC0023D15268E9B9C2F3080223F8022B8362A9
:104FCC00C48D013CA4B2C4858CB90368DA6822F0A4
:104FDC002002DA60DA6822F48072DA605A6922F010
:104FEC0001025A61202380F83A3001F0C3F9002005
:104FFC0010BDD2B223F8012BE1E721B9591C52683C
:10500C0081621A70DCE75268591C816202F07F02DF
:10501C00F7E7022010BD0000036870B51A6804465B
:10502C001607D9685D6907D196065AD58D0658D5ED
:10503C00BDE87040FFF7B1BF15F0010502D111F4C6
:10504C00907F4ED0D30705D5CE0542BFE36B43F01E
:10505C000103E363500704D51DB1E36B43F0020376
:10506C00E363930704D51DB1E36B43F00403E363DF
:10507C00160704D51DB1E36B43F00803E363E36B40
:10508C00002B66D0950604D5880602D52046FFF77E
:10509C0084FF236820465D69E26B110702D415F08A
:1050AC0040051AD0FFF759FE23685A69520610D5ED
:1050BC005A69606B22F040025A6150B1254B436330
:1050CC00FDF79CFF002844D0606BBDE87040436B3B
:1050DC001847204601F088F970BD01F085F9E563A9
:1050EC0070BD160627D50D0625D594F83920212A32
:1050FC002FD1A268B2F5805F226A17D11188C1F353
:10510C0008015960216979B902322262E28C013AB4
:10511C0092B2E284EAB9DA6822F08002DA60DA68E4
:10512C0042F04002DA6070BD0132EEE7511C2162A0
:10513C0012785A60EAE750060BD54A0609D5DA68A8
:10514C00204622F04002DA60202384F8393001F046
:10515C0025F970BD6551000808B50023406AC38568
:10516C00C38401F041F908BD90F8392090F83A0059
:10517C001043704786B0042841D8DFE800F00310D4
:10518C001C2834001F4B20489A6942F004029A6193
:10519C009B6903F004030193019B06B07047194B04
:1051AC001A489A6942F008029A619B6903F0080355
:1051BC000293029BF1E7134B15489A6942F01002D7
:1051CC009A619B6903F010030393039BE5E70D4B76
:1051DC0010489A6942F020029A619B6903F02003FF
:1051EC000493049BD9E7074B0B489A6942F04002A1
:1051FC009A619B6903F040030593059BCDE7002062
:10520C00CBE700BF0010024000080140000C014039
:10521C0000100140001401400018014008B5064977
:10522C0000F0ACFBC0F3C430023802289ABF034B29
:10523C00185C002008BD00BF388300089086000869
:10524C0000F06ABD30B5124991B0054600F072FB12
:10525C000090B8B12846FFF7E1FF1828044611D892
:10526C000C4BC340DB070DD50949284600F086FBE3
:10527C0010F4801F2146684606D0FFF76AFD684689
:10528C00FFF73AFC11B030BDFFF704FDF7E700BFA4
:10529C003883000811110001FDF71EBE704708B5D8
:1052AC00FDF70EFEFDF7A5FEFFF7F8FF08BD08B5EC
:1052BC00FDF7F4FDBDE80840FDF7ECB9064838B53C
:1052CC00A0F5A074A0F114051038FDF7EFFCA54271
:1052DC002846F7D138BD00BF5C0B00200023012805
:1052EC0003F1010202D040081346F8E71421DBB2A7
:1052FC004B43044A181D1044816811B11A441369B8
:10530C00184770471C0A00200120FDF79FBF0220A0
:10531C00FDF79CBF0420FDF799BF0820FDF796BF51
:10532C001020FDF793BF38B505242025A8B2FDF752
:10533C008DFF013C4FEA4505F8D138BD38B5062440
:10534C004FF48065A8B2FDF781FF013C4FEA45059B
:10535C00F8D138BD2DE9F041174600250A468AB030
:10536C00012A05F1010402D052082546F8E70393FF
:10537C0000234FF0010E1A461C46FF29D4BF0668C5
:10538C0046680291102B0DD00EFA03FC614507D133
:10539C001A46FF29C5BF03F18044083C9C00A400B9
:1053AC000133EFE70F230821A340334001FA04F443
:1053BC00A3423FD10123C16803FA02F28A4318BF0A
:1053CC000223142404930323EDB26C43DFF86880AA
:1053DC0006AD02A90593FDF759FE39462846FDF79F
:1053EC006EFC95E8030008EB04038DE8030004331E
:1053FC0093E8030085E803009DE8030083E80300BD
:10540C00261D4644089BB268B360099B0892F2685B
:10541C002846F3600992FDF749FC0022062118F991
:10542C000400FDF771FD18F90400FDF7A1FD0AB0A9
:10543C00BDE8F0810023C4E71C0A00200622224BA1
:10544C0000201A7007221A75082283F828200922D6
:10545C0083F83C200A2283F85020172283F864201A
:10546C0083F8782083F88C2083F8A02083F8B4206C
:10547C002822D86083F8C82083F8DC2083F8F02039
:10548C0083F8042183F8182183F82C2118625863BF
:10549C009864D8651867C3F88400C3F89800C3F8FB
:1054AC00AC00C3F8C000C3F8D400C3F8E800C3F8DC
:1054BC00FC00C3F81001C3F82401C3F83801034AF7
:1054CC00034901F093B800BF1C0A00200000002023
:1054DC00C952000830B50D0E91FAA1F4B4FA84F457
:1054EC0091FAA1F10F23B1FA81F1A40003FA04F4AB
:1054FC004359890023EA040302FA01F1194341518B
:10550C0030BD30B50D0E91FAA1F4B4FA84F491FAD1
:10551C00A1F10423B1FA81F1A40003FA04F4435974
:10552C00890023EA040302FA01F11943415130BD09
:10553C00431C04D00C3111F90C3C5A1C01D1002035
:10554C007047984201F10C01F5D101207047000021
:10555C002DE9F74FB24B5FFA80F808F00F02B0F16B
:10556C00FF3F81460D4601F00706C0F3031753F8C1
:10557C00224003D14321AB4800F0A7FB3846FFF78C
:10558C00F9FD012E83464FEA146AA74F40F0A38120
:10559C0094FAA4F3B3FA83F394FAA4F10320B1FAC6
:1055AC0081F15BF80A209B0000FA03F322EA030363
:1055BC0032468900884003434BF80A30214658464E
:1055CC00013EFFF787FF012E07D815F0080218BF20
:1055DC00042221465846FFF794FF94FAA4F3B3FA39
:1055EC0083F394FAA4F299000F23B2FA82F28B405F
:1055FC005BF80A10C5F301150B409200012D23FA3C
:10560C0002F300F01581022D00F04181082B40F0CF
:10561C002481042221465846FFF75CFF1DE1BB693B
:10562C00C5F3062243F00103BB61BB6903F0010320
:10563C000093009B531E232B2CD8DFE813F024007F
:10564C002D0034003B00400047004C005300580034
:10565C00600069006E0075007E0083008A00930074
:10566C009C00A100A800B100B600BD002B002B00CF
:10567C002B00C200C9002B002B002B002B00CE00EE
:10568C00D300DA00E100694A536843F0E06343F069
:10569C0001035360092291E7644A536823F0010324
:1056AC0043F0E063F5E7614A536843F0E06343F08D
:1056BC000203EEE75D4A536823F00203F0E75B4A0E
:1056CC00536843F0E06343F00403E2E7574A53683E
:1056DC0023F00403E4E7554A536843F0E06343F0D6
:1056EC000803D6E7514A536823F00803D8E74F491B
:1056FC004B6843F0E06343F030034B605EE74B4A8A
:10570C00536823F0300343F0E06343F01003C0E729
:10571C00464A536823F03003C2E7444A536843F0C7
:10572C00E06343F0C003B4E7404A536823F0C0037E
:10573C0043F0E06343F04003ABE73C4A536823F08B
:10574C00C003ADE7394A536843F0E06343F4407358
:10575C009FE7364A536823F4407343F0E06343F405
:10576C00007396E7314A536823F4407343F0E063C7
:10577C0043F480738DE72D4A536823F440738FE70D
:10578C002A4A536843F0E06343F4406381E7274AB5
:10579C00536823F4406343F0E06343F4006378E719
:1057AC00224A536823F440637AE7204A536843F053
:1057BC00E06343F480536CE71C4A536823F4805332
:1057CC006EE71A4A536843F0E06343F4004360E722
:1057DC00164A536823F4004362E7144A536823F0D3
:1057EC00E06356E7114A536823F0E06343F080739B
:1057FC004FE70E4A536823F0E06343F0007348E729
:10580C000A4A536823F0E06343F0806341E76A215E
:10581C00044800F05AFA0022D0E60822CEE600BF77
:10582C00FC8600089386000800100240000001402E
:10583C00042B04D1082221465846FFF74BFEDBF817
:10584C000C30240A94FAA4F223EA0404B2FA82F289
:10585C00012393401C43CBF80C40BB6943F001037C
:10586C00BB61BB6903F001030193019BA8F10D031C
:10587C00012B1DD81E4A536823F0E06343F080636C
:10588C005360A8F11308B8F1010F1BD813E0042BD7
:10589C0004D1082221465846FFF71CFEDBF80C30D9
:1058AC00240A23EA040394FAA4F4CBF80C30D4E7CA
:1058BC00B9F10F0FE5D10E4A536823F0E06343F0C2
:1058CC000073536003B0BDE8F08F012221465846A7
:1058DC00FFF700FE79E6032E99D801A353F826F0C2
:1058EC0027580008D75800082B56000823580008E2
:1058FC0000000140431C06D17047984202D18968D0
:10590C00FFF726BE0C3191F900305A1CF5D19221CB
:10591C00014800F0DAB900BF9386000891F9003015
:10592C005A1C01D100207047834201D1486870474E
:10593C000C31F3E7431C01D0FFF7F0BF0020704798
:10594C004B6813B94FF0FF307047834202D191F985
:10595C00000070470C31F3E708B1FFF7F1BF4FF0CF
:10596C00FF30704791F900305A1C01D1184670472E
:10597C00834201D1886870470C31F3E7431C01D096
:10598C00FFF7F0BF7047884204D018B100290CBF54
:10599C000146002108467047034B1B6813B1034AAC
:1059AC0010681847704700BF5C0B0020740B002078
:1059BC000148FEF785BE00BF600B002030B50D0E10
:1059CC0091FAA1F4B4FA84F491FAA1F10F23B1FA8B
:1059DC0081F1A40003FA04F44359890023EA040377
:1059EC0002FA01F11943415130BD0000074B1B680D
:1059FC0050B1074A904205D002F57842904203D14B
:105A0C00FEF7D6BDFEF7C4BD184670473002002025
:105A1C00003800402DE9F74F0D46164698460446CF
:105A2C00002800F0CA80854990F95D00FFF782FFDD
:105A3C008349814694F95C00FFF77CFF81498246DB
:105A4C0094F95E00FFF776FF7F49074694F95F00F3
:105A5C00FFF770FF8346B9F1000F00F0AE80BAF18A
:105A6C00000F00F0AA80002F00F0A7805146484696
:105A7C00FFF789FF594681463846FFF784FF0146F8
:105A8C004846FFF780FFA065002800F0968094F947
:105A9C005F302060013314BF4FF480234FF4007348
:105AAC00A3614FF482736360FFF7A0FFB5EB500F57
:105ABC00C0F086800023E3610023A36016F0FD0391
:105ACC0018BF0123012E88BF0222636188BF2261A7
