:020000040800F2
:1000000000040020470100085501000857010008BE
:10001000590100085B0100085D01000800000000B4
:100020000000000000000000000000005F01000868
:10003000610100080000000063010008650100087C
:1000400067010008670100086701000867010008F0
:1000500067010008670100086701000867010008E0
:1000600067010008670100086701000867010008D0
:1000700067010008670100086701000867010008C0
:1000800067010008670100086701000867010008B0
:1000900067010008670100086701000867010008A0
:1000A0006701000867010008670100086701000890
:1000B0006701000867010008670100086701000880
:1000C0006701000867010008670100086701000870
:1000D0006701000867010008670100086701000860
:1000E0006701000867010008670100086701000850
:1000F0006701000867010008670100086701000840
:10010000670100086701000867010008670100082F
:10011000670100086701000867010008670100081F
:10012000670100086701000867010008670100080F
:10013000DFF80CD001F0C2FC00480047F7010008CE
:1001400028020020704708488047084981F3088842
:1001500007480047FEE7FEE7FEE7FEE7FEE7FEE7AB
:10016000FEE7FEE7FEE7FEE7450100082802002063
:100170003101000808B50121082001F087F90320AA
:10018000ADF8000018208DF8030003208DF8020060
:100190006946384800F0E2FE08BD0EB50121022094
:1001A00001F081F9344800F077F80020ADF8000044
:1001B0004FF41670ADF804000020ADF80600ADF85D
:1001C000020069462C4800F0D2F870202B490880C4
:1001D0002B480088C88001204880002008812648DC
:1001E00000F05FF92549244800F0A3F901212248D5
:1001F00000F043FB0EBD01F0C3FBFFF7BBFF01F0B6
:10020000F9FBFFF7CAFF482001F0ACF931E01D48C7
:10021000008860B91A480088401C194908800846BF
:100220000088B0F5167F02D10120164908801548D4
:10023000008801280AD112480088401E1049088011
:100240000846008810B900200E490880012001F0FE
:10025000A5F90B4801880CA001F042FC0848008871
:100260000649C880044800F01CF90449024800F01F
:1002700060F9CCE7000C01400004004014000020AD
:1002800002000020000000200D0A2061613D2020B6
:1002900025640D0A0000000010B50446F749601AF5
:1002A0008C4245D00CDCB4F1804F1DD0F4482018AE
:1002B00023D0B0F5806F29D0B0F5006F54D12EE077
:1002C000B0F5806F3DD0B0F58E3F03D0B0F5923FD2
:1002D0004AD13FE00121C80201F0F2F800214FF4B9
:1002E000006001F0EDF840E00121084601F0F5F86A
:1002F0000021012001F0F1F837E00121022001F096
:10030000ECF80021022001F0E8F82EE001210420A1
:1003100001F0E3F80021042001F0DFF825E00121DD
:10032000082001F0DAF80021082001F0D6F81CE0DE
:100330000121102001F0D1F80021102001F0CDF8AA
:1003400013E00121202001F0C8F80021202001F055
:10035000C4F80AE00121480301F0B2F800214FF48B
:10036000005001F0ADF800E000BF00BF10BD0288F2
:1003700002F08F020280CA884B881A4303881A430E
:1003800002808A8882850A88028501228282BD4A8B
:10039000904202D0BC4A904201D10A7A028670474C
:1003A00070B5002400220023058C4FF6FE76354000
:1003B0000584028C8388048B4FF68F752C400D8842
:1003C0002C43751E2A400D892A434D882A43CD8827
:1003D0008586AC4DA84202D0AB4DA84213D14FF652
:1003E000F7752A404D892A434FF6FB752A408D88C0
:1003F0002A4347F6FF652B4047F6FF552B408D8972
:100400002B43CD892B4383800483028470BD70B558
:10041000002400220023058C4FF6EF76354005843A
:10042000028C8388048B48F6FF752C400D884FF6AC
:10043000FF7606EA05252C434FF6DF752A400D8925
:1004400006EA05152A434D8806EA05152A43CD8894
:1004500005878C4DA84202D08B4DA8421DD14FF686
:100460007F752A404D894FF6FF7606EA05152A4327
:100470004FF6BF752A408D8806EA05152A4347F6D0
:10048000FF352B4047F2FF752B408D8906EA850525
:100490002B43CD8906EA85052B43838004830284A0
:1004A00070BD70B5002400220023058C4FF6FF6656
:1004B00035400584028C8388848B4FF68F752C40E1
:1004C0000D882C434FF6FF552A400D894FF6FF76D5
:1004D00006EA05252A434D8806EA05252A43CD88E4
:1004E0008587684DA84202D0674DA8421DD14FF2C2
:1004F000FF752A404D894FF6FF7606EA05252A4307
:100500004FF6FF352A408D8806EA05252A4346F630
:10051000FF752B4045F6FF752B408D8906EA0515C2
:100520002B43CD8906EA05152B43838084830284FF
:1005300070BD70B5002400220023058C4EF6FF76B6
:1005400035400584028C8388848B48F6FF752C40E7
:100550000D884FF6FF7606EA05252C434DF6FF750C
:100560002A400D8906EA05352A434D8806EA0535F5
:100570002A43CD88A0F84050424DA84202D0424DB7
:10058000A84207D1C3F30D038D894FF6FF7606EA23
:1005900085152B4383808483028470BD828B4FF248
:1005A000FF331A408283828B4FF6FF7303EA0123E5
:1005B0001A4382837047F0B50C461546002100228D
:1005C0000026078C4EF6FF7C07EA0C070784818B18
:1005D000028C4FF6FF7707EA043640F6FF473940B2
:1005E0004FF6FF7707EA05274FF6FF7C0CEA033C3E
:1005F00047EA0C0739434DF6FF773A4046F48057F7
:100600003A4381830284F0BD828B4FF6F3731A4024
:100610008283828B0A4382837047F0B50C4615466D
:10062000002100220026078C4FF6FF6C07EA0C071A
:100630000784818B028C4FF6FF7707EA04264FF67A
:100640000C7739404FF6FF7707EA03172F433943FA
:100650004FF6FF573A4046F480773A43818302844D
:10066000F0BD028B4FF2FF331A400283028B4FF62C
:10067000FF7303EA01231A4302837047001000400E
:1006800000FCFFBF002C014000340140F0B50C46D7
:100690001546002100220026078C4FF6EF7C07EA62
:1006A0000C070784018B028C4FF6FF7707EA0416CC
:1006B00040F6FF4739404FF6FF7707EA03373943E3
:1006C0004FF6FF7707EA052739434FF6DF773A40C1
:1006D00046F010073A4301830284F0BD028B4FF6C7
:1006E000F3731A400283028B0A4302837047F0B50A
:1006F0000C46154600210022068C4FF6FE773E4040
:100700000684018B028C4FF60C7631407E1C06EA83
:1007100003162E4331437E1E324044F0010632431D
:1007200001830284F0BD70B505460C46208850B99F
:100730002389A28861882846FFF7D9FFE1882846E7
:10074000FFF7CCFF25E0208804280AD12389A2885E
:1007500061882846FFF79AFFE1882846FFF781FF66
:1007600017E0208808280AD12389A28861882846B2
:10077000FFF753FFE1882846FFF746FF09E023898A
:10078000A28861882846FFF716FFE1882846FFF710
:1007900005FF70BD2DE9F04105460C4600260127F6
:1007A000608808B9022600E00026A088012801D14F
:1007B000022700E001272088A0B92389A288618848
:1007C0002846FFF794FFE1882846FFF787FF238933
:1007D0003A4631462846FFF759FFE1882846FFF799
:1007E00040FF13E02389A28861882846FFF74EFF67
:1007F000E1882846FFF735FF23893A4631462846E7
:10080000FFF775FFE1882846FFF768FFBDE8F08134
:100810000A884B881A438B881A43CB881A430B8962
:100820001A434B891A438B891A43A0F84420704716
:100830004FF6FF71818000210180C18041800172EB
:1008400070470021018041808180C1800181418108
:100850008181C18170470021018041800121818017
:100860000021C18001817047002101804180818089
:10087000C180018141818181704721B1028842F0AC
:100880000102028004E0028840F2FE331A40028036
:10089000704731B1B0F8442042F40042A0F844203F
:1008A00005E0B0F84420C2F30E02A0F844207047DF
:1008B0001AB183890B43838102E083898B4383814F
:1008C00070478182704741EA0203A0F848307047C0
:1008D0001AB183890B43838102E083898B4383812F
:1008E000704701894FF6F8721140018170470A463E
:1008F000002101894FF68F73194011430181704720
:1009000030B504460D4629462046FFF7F0FF208902
:1009100040F00700208130BD2DE9F04104460D462E
:1009200016461F46602D06D13B4601223146204621
:10093000FFF7ACFE05E03B46012231462046FFF7BB
:10094000D6FE29462046FFF7D2FF208940F0070057
:100950002081BDE8F08170B50C4600210189C9B243
:1009600044EA02054FF6FF7606EA0326354329439B
:10097000018170BD2DE9F04105460E4617469846A7
:10098000002443463A4631462846FFF7E4FF2C89C7
:100990004FF6F870044044F007044FF68F7004409F
:1009A00044F070042C81BDE8F081F0B504460D469A
:1009B00016461F463B46324629462046FFF7CBFFE8
:1009C000208940F480402081F0BD018582827047FB
:1009D0000A460021018840F28F33194011430180FB
:1009E0007047F0B50C4615461E4600210022002334
:1009F0000189028B038C4FF6F877394021434FF67B
:100A0000FC473A4040F201173A434FF6DD773B404E
:100A10004FF6FF7707EA06172F433B430181028316
:100A20000384F0BD0A460021018B4FF68F731940F5
:100A30001143018370470A460021018B48F6FF737A
:100A400019404FF6FF7303EA0223194301837047ED
:100A50000A460021818B4FF68F7319401143818321
:100A600070470A460021818B48F6FF7319404FF604
:100A7000FF7303EA022319438183704721B102887F
:100A800042F08002028004E0028840F27F331A4084
:100A90000280704721B1828842F00402828004E023
:100AA00082884FF6FB731A408280704721B182889A
:100AB00042F00802828004E082884FF6F7731A4001
:100AC0008280704721B1828842F00102828004E076
:100AD00082884FF6FE731A40828070470A460021D2
:100AE000018B4FF6F77319401143018370470A4693
:100AF0000021018B4FF2FF7319404FF6FF7303EA99
:100B000002231943018370470A460021818B4FF667
:100B1000F77319401143818370470A460021818B86
:100B20004FF2FF7319404FF6FF7303EA0223194394
:100B3000818370470A460021018B4FF6FB731940F1
:100B40001143018370470A460021018B4FF6FF33A2
:100B500019404FF6FF7303EA0223194301837047DC
:100B60000A460021818B4FF6FB73194011438183A4
:100B700070470A460021818B4FF6FF3319404FF62C
:100B8000FF7303EA02231943818370470A46002159
:100B9000018B4FF67F7319401143018370470A465A
:100BA0000021018BC1F30E014FF6FF7303EA02230C
:100BB0001943018370470A460021818B4FF67F73EA
:100BC00019401143818370470A460021818BC1F38C
:100BD0000E014FF6FF7303EA022319438183704726
:100BE0000A460021018C4FF6FD7319401143018420
:100BF00070470A460021018C4FF6F77319401143E4
:100C0000018470470A460021018C4FF6DF731940BA
:100C10004FF6FF7303EA02131943018470470A4633
:100C20000021018C4FF67F7319404FF6FF7303EAE2
:100C300002131943018470470A460021018C4FF6C4
:100C4000FF5319404FF6FF7303EA0223194301844F
:100C500070470A460021018C4FF2FF7319404FF68E
:100C6000FF7303EA02231943018470470A460021F7
:100C7000018C4DF6FF7319404FF6FF7303EA023300
:100C800019430184704710B5038C01248C40A343A1
:100C90000384038C02FA01F4A4B22343038410BD3D
:100CA00010B5038C04248C40A3430384038C02FA04
:100CB00001F4A4B22343038410BD30B5038C012496
:100CC0008C40A343038409B1082912D100F1180311
:100CD00003EB61031B684FF68F74234000F1180487
:100CE00004EB6104236000F1180303EB61031A6055
:100CF00018E00B1FC3F34E0400F118031B5948F60C
:100D0000FF7423400C1FC4F34E0500F11804635117
:100D10004FF6FF7303EA02240B1FC3F34E0500F1E5
:100D200018035C5130BD21B1028842F002020280FA
:100D300004E0028840F2FD331A400280704721B17E
:100D4000028842F00402028004E0028840F2FB3391
:100D50001A400280704721B1828842F0800282806E
:100D600004E082884FF67F731A40828070470288C1
:100D700040F2F7331A40028002880A43028070472B
:100D800082884FF68F731A40828082880A4382805D
:100D9000704702894FF6F8731A40028102890A43AC
:100DA0000281704702894FF67F731A4002810289DF
:100DB0000A4302817047818470478185704781862C
:100DC00070470187704781877047A0F840107047CF
:100DD0000288D2B2028002880A430280704701462C
:100DE000888E70470146088F70470146888F70478C
:100DF0000146B1F8400070470146888C70470146B3
:100E0000088D704702460020138A0B4201D0012052
:100E100000E000207047CA430282704730B50246A6
:100E2000002000230024158A05EA0103958905EABC
:100E3000010413B10CB1012000E0002030BDCA4311
:100E4000028270471049096801F038010E4A1160AA
:100E5000114609680143116070470B49096821F088
:100E60000801094A11601146096801431160704781
:100E70000549096821F01001034A1160114609680B
:100E800001431160704700000020024010B5044685
:100E9000C449601A8C422FD009DCC348201810D0F6
:100EA000B0F5806F16D0B0F5006F4AD11BE0B0F5F9
:100EB000806F2AD0B0F5006F30D0B0F5406F40D1D0
:100EC00035E00121042000F0FBFA0021042000F0AD
:100ED000F7FA37E00121082000F0F2FA002108209B
:100EE00000F0EEFA2EE00121102000F0E9FA0021D6
:100EF000102000F0E5FA25E00121202000F0E0FAC2
:100F00000021202000F0DCFA1CE00121402000F04C
:100F1000D7FA0021402000F0D3FA13E0012180200D
:100F200000F0CEFA0021802000F0CAFA0AE0012188
:100F3000080200F0C5FA00214FF4807000F0C0FAFA
:100F400000E000BF00BF10BD10B50121084600F051
:100F5000B7FA0021012000F0B3FA10BD2DE9F041ED
:100F6000024600250026002000230024002791F8D7
:100F700003C00CF00F0591F803C01CF0100F03D054
:100F800091F802C04CEA050591F800C0BCF1000FD1
:100F900030D0146800202AE04FF0010C0CFA00F366
:100FA000B1F800C00CEA03069E421FD183004FF047
:100FB0000F0C0CFA03F7BC4305FA03FC4CEA0404DB
:100FC00091F803C0BCF1280F05D14FF0010C0CFAC9
:100FD00000FCC2F814C091F803C0BCF1480F05D161
:100FE0004FF0010C0CFA00FCC2F810C0401C08289D
:100FF000D2D31460B1F800C0BCF1FF0F34DD5468E7
:1010000000202EE000F1080C4FF0010808FA0CF364
:10101000B1F800C00CEA03069E4221D183004FF0D4
:101020000F0C0CFA03F7BC4305FA03FC4CEA04046A
:1010300091F803C0BCF1280F05D100F1080C08FAA3
:101040000CF8C2F8148091F803C0BCF1480F07D126
:1010500000F1080C4FF0010808FA0CF8C2F81080F3
:10106000401C0828CED35460BDE8F0814FF6FF71D4
:101070000180022181700421C17070470246002066
:1010800093680B4201D0012000E000207047014628
:10109000886880B2704702460020D3680B4201D0B6
:1010A000012000E0002070470146C86880B2704708
:1010B00001617047416170470AB1016100E041611F
:1010C0007047C16070474FF480320A43826181618A
:1010D000826182698269704702460020334B18683A
:1010E0004FF68073184040EA021008432F4B1860F7
:1010F00070472F49C8617047F0B50A4600230024A5
:1011000000210025294E7168C0F3034583B200F425
:101110004016B6F5401F08D121F07061234E766865
:1011200026F07066214F7E6012E000F48016B6F55E
:10113000801F06D1032606FA05F4A14341F0706131
:1011400006E0460D360103FA06F6B14341F0706140
:1011500022B1460D360103FA06F63143134E716093
:10116000F0BD30B500228B071C0F0F2303FA04F2E9
:101170000E4B08338C1053F8243093430B4C083437
:101180008D1044F8253023468C1053F824308C07FA
:10119000240F00FA04F42343044C08348D1044F85F
:1011A000253030BD0014014000F8FEBF00000140B2
:1011B00000002042DE48006840F00100DC49086081
:1011C00008464068DB490840D9494860084600683D
:1011D000D9490840D64908600846006820F48020B4
:1011E00008600846406820F4FE00486000208860DF
:1011F0007047CF49096821F48031CD4A116011460A
:10120000096821F480211160B0F5803F03D0B0F56A
:10121000802F0ED106E0C649096841F48031C44AE6
:10122000116007E0C249096841F4A021C04A116079
:1012300000E000BF00BF704710B501460022002348
:1012400000204A11012A02D1B94C236806E0022A83
:1012500002D1B74C236A01E0B54C636A01F01F026A
:10126000012494401C4201D0012000E0002010BD68
:1012700010B5002400BF3120FFF7DEFFAF49087032
:10128000AF480068401CAE490860AC48007828B9F7
:1012900008460068A0F58071FF39ECD13120FFF7D6
:1012A000CBFF08B1012400E00024204610BD014618
:1012B00000209F4A106820F0F80040EAC10010604A
:1012C0007047A0490860704702460020984B586854
:1012D00020F47C1042EA01031843954B5860704794
:1012E00098490866704701460020914A506820F0EE
:1012F00003000843506070478D48406800F00C00C0
:101300007047014600208A4A506820F0F0000843E8
:101310005060704701460020854A506820F4E06024
:1013200008435060704701460020814A506820F40D
:10133000605040EAC1005060704729B17C4A527A3F
:1013400002437B4B5A7204E0794A527A8243784BCB
:101350005A7270477C490860704701460020744A01
:10136000506820F440400843506070470021774A9D
:1013700011706F4A82F82010012802D0042808D189
:1013800003E00121714A117004E005216F4A1170D8
:1013900000E000BF00BF70476D49086070476449B6
:1013A000096A0143624A1162704769494439086019
:1013B000704730B500210022002400235C4D6D6889
:1013C00005F00C0121B1042905D0082923D105E03D
:1013D000604D056022E05F4D05601FE0544D6D6873
:1013E00005F47012022505EB9242514D6D6805F42B
:1013F00080341CB9584D554305600BE04C4D6D6869
:1014000015F4003F03D0544D5543056002E0514DA3
:101410005543056002E04F4D056000BF00BF444DDD
:101420006D6805F0F00109094C4D6B5C0568DD4005
:1014300045603F4D6D6805F4E061090A474D6B5CFE
:101440004568DD4085603A4D6D6805F46051C90A14
:10145000424D6B5C4568DD40C560354D6D6805F4F7
:101460004041890B3E4D6B5CC568B5FBF3F50561EA
:1014700030BD29B12E4A526902432D4B5A6104E016
:101480002B4A526982432A4B5A61704729B1284A34
:1014900092690243264B9A6104E0254A926982438D
:1014A000234B9A61704729B1214AD2690243204BEC
:1014B000DA6104E01E4AD26982431D4BDA6170474B
:1014C00029B11B4AD2680243194BDA6004E0184A7A
:1014D000D2688243164BDA60704729B1144A126908
:1014E0000243134B1A6104E0114A12698243104B04
:1014F0001A61704716494039086070471149C8643D
:1015000070470B49C87170470948406A40F08070C5
:1015100007494862704701460020054A92680A421E
:1015200001D0012000E00020704701498872704717
:10153000001002400000FFF8FFFFF6FE0800002048
:101540000400002000004242D80042422010024025
:101550008004424200127A0000093D00741C000819
:10156000841C00084FF0E021096921F004014FF0CC
:10157000E0221161C21700EB5272C2F3C702224B84
:101580001A701946097801EB4102C2EBC1114FF6FE
:10159000FF7202EAC1011D4A1180704701461B4AD1
:1015A00012884A434FF0E0235A6100229A610122D7
:1015B0001A6100BF4FF0E022106910F0010F02D055
:1015C00010F4803FF6D000224FF0E0231A619A61B8
:1015D000704701460C4A12784A434FF0E0235A61A3
:1015E00000229A6101221A6100BF4FF0E0221069C7
:1015F00010F0010F02D010F4803FF6D000224FF01F
:10160000E0231A619A6170470A0000200C00002054
:1016100010B50446D749601A8C422BD006DCD64858
:10162000201813D0B0F5806F38D119E0B0F5806F75
:101630002AD0B0F56C4F31D101218803FFF740FF6C
:1016400000214FF48040FFF73BFF28E001214804D0
:10165000FFF743FF00214FF40030FFF73EFF1EE08D
:1016600001218804FFF739FF00214FF48020FFF7A4
:1016700034FF14E00121C804FFF72FFF00214FF4CD
:101680000020FFF72AFF0AE001210805FFF725FFE8
:1016900000214FF48010FFF720FF00E000BF00BFE3
:1016A00010BD2DE9F04786B005460E460024A2463F
:1016B00000BF00BF00272F462C8A4CF6FF70044065
:1016C000F08804432C82AC894EF6F3100440B088B5
:1016D00031890843718908430443AC81AC8A4FF6D1
:1016E000FF400440B0890443AC8201A8FFF761FECB
:1016F000A248874202D1DDF810A001E0DDF80CA07D
:101700000AEBCA0000EB0A1031688900B0FBF1F85F
:101710006420B8FBF0F004012009642101FB10896A
:10172000322000EB0910B0FBF1F000F00F00044391
:101730002C8106B0BDE8F0874FF4165101600021FE
:101740008180C18001810C2141810021818170470C
:1017500010B502460020108A4FF2FF0318400B8894
:101760004C8823438C882343CC882343184310821E
:1017700010BD0021018041808180C180704721B16E
:10178000828942F40052828104E082894DF6FF731F
:101790001A4082817047F0B50346002400260025D8
:1017A00000201846C1F3421401F01F06012707FA72
:1017B00006F5012C01D10C3004E0022C01D11030CF
:1017C00000E014301AB107682F43076002E0076891
:1017D000AF430760F0BD1AB1838A0B43838202E0F6
:1017E000838A8B4383827047028A4FF6F0731A40D4
:1017F0000282028A0A430282704782894FF2FF7393
:101800001A40828182890A438281704721B182898C
:1018100042F00202828104E082894FF6FD731A4091
:1018200082817047028A4FF6DF731A400282028A71
:101830000A430282704721B1028A42F48042028246
:1018400004E0028A4BF6FF731A4002827047C1F32C
:1018500008028280704701468888C0F308007047FC
:10186000818941F0010181817047028BD2B20283EC
:10187000028B42EA012202837047028B02F47F420C
:101880000283028B0A430283704721B1828A42F0AD
:101890002002828204E0828A4FF6DF731A4082823D
:1018A000704721B1828A42F01002828204E0828A6B
:1018B0004FF6EF731A408282704721B1828A42F05C
:1018C0000802828204E0828A4FF6F7731A4082820D
:1018D0007047828A4FF6FB731A408282828A0A43DB
:1018E0008282704721B1828A42F00202828204E041
:1018F000828A4FF6FD731A408282704702460020AA
:1019000013880B4201D0012000E000207047CA4339
:101910000280704770B502460B4600240021002566
:101920000020C3F3421503F01F01012606FA01F15E
:10193000012D02D19689314006E0022D02D1168A8E
:10194000314001E0968A31401C12012606FA04F467
:101950001688344011B10CB1012000E0002070BDA8
:1019600010B5002200230A1201249440A3B2DC43E4
:10197000048010BD004C004000BCFFBF0038014097
:1019800010B5FFF717FC4FF48030FFF732FCFFF77C
:101990006FFC1749087008460078012826D11020EE
:1019A000FFF766FA0220FFF74DFA0020FFF7A9FCC7
:1019B0000020FFF7B8FC4FF48060FFF7ABFC4FF45A
:1019C000E0114FF48030FFF77FFC0120FFF788FC27
:1019D00000BF3920FFF730FC0028FAD00220FFF7C3
:1019E00082FC00BFFFF788FC0828FBD110BD000077
:1019F0000E00002000B585B0012144F20400FFF77D
:101A000045FD4FF40070ADF8100018208DF813005C
:101A100003208DF8120004A91B48FFF79FFA4FF42A
:101A20008060ADF8100004208DF8130004A916485A
:101A3000FFF794FA4FF4E13000900020ADF8040075
:101A4000ADF80600ADF80800ADF80C000C20ADF8BC
:101A50000A0069460D48FFF724FE01210B48FFF7F5
:101A60008EFE05B000BD70B504460D46E1B20748D4
:101A7000FFF7EDFE00BF40210448FFF73FFF0028BD
:101A8000F9D0204670BD0000000801400038014038
:101A900030B50B46014600202022012409E021FA3E
:101AA00002F59D4205D303FA02F5491B04FA02F53B
:101AB0002844151EA2F10102F1DC30BD064C074D91
:101AC00006E0E06840F0010394E80700984710340E
:101AD000AC42F6D3FEF730FB881C0008A81C0008B7
:101AE0000FB4054B10B503A9044A029800F018F88A
:101AF00010BC5DF814FB0000671A000810000020FD
:101B000002E008C8121F08C1002AFAD170477047C6
:101B1000002001E001C1121F002AFBD17047000024
:101B20002DE9FF4F89B09B460446002597E0252804
:101B300033D10027641C4E49B84601222378203B4C
:101B400002FA03F0084202D00743641CF6E720784B
:101B50002E2819D114F8010F47F004072A280ED0B7
:101B60006FF02F022078A0F1300109290CD808EB82
:101B7000880102EB410100EB0108641CF2E70A98BE
:101B8000641C50F8048B0A90207800286BD06428DD
:101B900008D0692806D0752820D05A460B9990475E
:101BA0006D1C5BE00A994FF00A0901C90A910028EF
:101BB00004DAC0F100004FF02D0102E0390504D530
:101BC0002B218DF82010012103E0F90704D02021FA
:101BD000F7E78A4608AE0EE00021FAE70A994FF0CF
:101BE0000A0901C90A91F7E74946FFF751FF01F1D8
:101BF000300106F8011D0028F6D1ADEB060000F11A
:101C00002009780701D44FF00108C84502DDA8EB90
:101C1000090000E000208046002706E008A85A4698
:101C2000C05D0B9990476D1C7F1C5745F6DB04E0A7
:101C300030205A460B9990476D1CB8F10001A8F16D
:101C40000108F5DC05E016F8010B5A460B999047A0
:101C50006D1CB9F10001A9F10109F4DC641C2078C4
:101C600000287FF464AF0DB02846BDE8F08F000077
:101C7000092801000000000001020304010203041E
:101C80000607080902040608A81C00080000002036
:101C900014000000001B0008BC1C000814000020F9
:101CA00014020000101B00080000000000000000EB
:0C1CB00000000000000000000000000028
:0400000508000131BD
:00000001FF
